:100000000C9465000C9484000C9484000C9484007F
:100010000C9484000C9484000C9484000C94840050
:100020000C9484000C9484000C9484000C94840040
:100030000C9484000C9402010C9484000C948400B1
:100040000C9484000C9484000C9484000C94840020
:100050000C9484000C9484000C9484000C94840010
:100060000C9484000C9484000C9484000C94840000
:100070000C9484000C9484000C9484000C948400F0
:100080000C9484000C9484000C948400CF03D5035A
:10009000DB03E103E703ED03F303F903FF030504C7
:1000A0000B04110417041D04230429042E048107E2
:1000B0009907B0070F083308C707EB077A087F08CE
:1000C0009D0801092409BB08DE0811241FBECFEFDB
:1000D000D0E4DEBFCDBF11E0A0E0B1E0EAE9FEE18F
:1000E00000E00BBF02C007900D92A032B107D9F714
:1000F00021E0A0E2B1E001C01D92A536B207E1F710
:100100000E94A6090C944B0F0C940000CF93DF9330
:1001100000D000D0CDB7DEB769837A838B839C8310
:1001200089819A81AB81BC81809300019093010108
:10013000A0930201B093030180910001909101010D
:10014000A0910201B09103018093210190932201BB
:10015000A0932301B093240100000F900F900F9003
:100160000F90DF91CF910895CF93DF93CDB7DEB796
:1001700081E890E02BE0FC01208388E890E02DE707
:1001800030E0FC01318320838FE690E022E0FC0127
:10019000208384E890E0FC011182108280910001AC
:1001A00090910101A0910201B0910301809321017E
:1001B00090932201A0932301B09324018FE590E056
:1001C0002FE530E0F90120812068FC012083000048
:1001D000DF91CF910895CF93DF93CDB7DEB781E85C
:1001E00090E0FC0110820000DF91CF910895CF9341
:1001F000DF93CDB7DEB781E0809320010000DF916F
:10020000CF9108951F920F9200905F000F921124DA
:1002100000905B000F922F933F934F935F936F93E8
:100220007F938F939F93AF93BF93EF93FF93CF935E
:10023000DF93CDB7DEB78091210190912201A0918B
:100240002301B09124010197A109B10980932101F3
:1002500090932201A0932301B09324018091210166
:1002600090912201A0912301B0912401892B8A2B26
:100270008B2B91F40E94F700809100019091010175
:10028000A0910201B091030180932101909322017A
:10029000A0932301B09324010000DF91CF91FF913F
:1002A000EF91BF91AF919F918F917F916F915F91EE
:1002B0004F913F912F910F9000925B000F90009211
:1002C0005F000F901F901895CF93DF93CDB7DEB7E7
:1002D0002C970FB6F894DEBF0FBECDBF6D837E8323
:1002E0008F83988729873A874B875C878D819E818A
:1002F000AF81B88529853A854B855C85BC01CD01E8
:100300000E94DD0CDC01CB0189839A83AB83BC8323
:1003100089819A81AB81BC81892B8A2B8B2B29F413
:1003200089859A85AB85BC8511C089859A85AB8501
:10033000BC858D839E83AF83B88789819A81AB8189
:10034000BC8189879A87AB87BC87D0CFBC01CD01A0
:100350002C960FB6F894DEBF0FBECDBFDF91CF91C4
:100360000895CF93DF9300D01F92CDB7DEB7898376
:100370006A834B838B81882371F08A81282F30E038
:1003800081E090E002C0880F991F2A95E2F7982F2C
:100390008981892B0EC08A81282F30E081E090E08E
:1003A00002C0880F991F2A95E2F7982F90958981AE
:1003B00089230F900F900F90DF91CF910895CF93E5
:1003C000DF9300D0CDB7DEB789836A838A81282F77
:1003D00030E081E090E002C0880F991F2A95E2F793
:1003E000982F898189230F900F90DF91CF910895E5
:1003F0000F931F93CF93DF93CDB7DEB708E210E0E2
:1004000040E064E08FEF0E94B101F80180830000BA
:1004100086E290E0FC018081809560E00E94DF012F
:10042000882311F081E3D3C086E290E0FC01808153
:10043000809561E00E94DF01882311F084E3C7C04A
:1004400086E290E0FC018081809562E00E94DF01FD
:10045000882311F087E3BBC086E290E0FC01808135
:10046000809563E00E94DF01882311F08AE2AFC02B
:1004700008E210E040E065E08FEF0E94B101F80172
:100480008083000086E290E0FC018081809560E03E
:100490000E94DF01882311F082E399C086E290E098
:1004A000FC018081809561E00E94DF01882311F0CA
:1004B00085E38DC086E290E0FC018081809562E05A
:1004C0000E94DF01882311F088E381C086E290E07A
:1004D000FC018081809563E00E94DF01882311F098
:1004E00080E375C008E210E040E066E08FEF0E9414
:1004F000B101F8018083000086E290E0FC01808178
:10050000809560E00E94DF01882311F083E35FC0E3
:1005100086E290E0FC018081809561E00E94DF012D
:10052000882311F086E353C086E290E0FC018081CD
:10053000809562E00E94DF01882311F089E347C0C3
:1005400086E290E0FC018081809563E00E94DF01FB
:10055000882311F083E23BC008E210E040E067E04E
:100560008FEF0E94B101F8018083000086E290E0E5
:10057000FC018081809560E00E94DF01882311F0FA
:1005800081E425C086E290E0FC018081809561E0F5
:100590000E94DF01882311F082E419C086E290E016
:1005A000FC018081809562E00E94DF01882311F0C8
:1005B00083E40DC086E290E0FC018081809563E0D9
:1005C0000E94DF01882311F084E401C080E0DF9104
:1005D000CF911F910F9108950F931F93CF93DF93A6
:1005E00000D000D0CDB7DEB769837A838B839C833C
:1005F0008091260190912701A0912801B0912901B5
:100600009C01AD0169817A818B819C810E941C0DC6
:10061000882309F477C020E030E0A90169817A815C
:100620008B819C810E941C0D882351F481E990E00C
:1006300021E930E0F90120812870FC01208309C004
:1006400081E990E021E930E0F90120812360FC019B
:10065000208328E539E344E75FE369817A818B8170
:100660009C810E941C0D882344F488E990E02FEFC0
:100670003FEFFC013183208334C020E034E244EFBB
:1006800056E469817A818B819C810E943E0E181606
:1006900034F488E990E0FC011182108222C008E95C
:1006A00010E020E030E040E053E469817A818B8102
:1006B0009C810E94430EDC01CB019C01AD0160E0F6
:1006C00074E284EF9AE40E94210DDC01CB01BC01AD
:1006D000CD010E94930DDC01CB010197F8019183BC
:1006E000808384E990E0FC011182108289819A81E3
:1006F000AB81BC818093260190932701A0932801B0
:10070000B093290100000F900F900F900F90DF9190
:10071000CF911F910F910895CF93DF93CDB7DEB79F
:1007200080E990E020E4FC01208381E990E02BE067
:10073000FC01208360E070E0CB010E94EC0200002D
:10074000DF91CF910895CF93DF93CDB7DEB780E9E6
:1007500090E0FC01108281E990E0FC011082000031
:10076000DF91CF910895CF93DF931F92CDB7DEB77E
:1007700089838981882F90E0092E000CAA0BBB0B7E
:1007800040E050E020E130E0841B950B281739074A
:1007900008F46AC08A5B9F4FFC010C94FF0C85E251
:1007A00090E02FE1FC01208365C085E290E021E02C
:1007B000FC0120835FC085E290E022E0FC01208301
:1007C00059C085E290E023E0FC01208353C085E21C
:1007D00090E024E0FC0120834DC085E290E025E01C
:1007E000FC01208347C085E290E026E0FC012083E5
:1007F00041C085E290E027E0FC0120833BC085E218
:1008000090E028E0FC01208335C085E290E029E0FB
:10081000FC0120832FC085E290E02AE0FC012083C8
:1008200029C085E290E02BE0FC01208323C085E213
:1008300090E02CE0FC0120831DC085E290E02DE0DB
:10084000FC01208317C085E290E02EE0FC012083AC
:1008500011C085E290E0FC0110820CC085E290E0BE
:100860002FE0FC01208306C085E290E02BE1FC0133
:100870002083000000000F90DF91CF910895CF9367
:10088000DF93CDB7DEB78CE18093040110920501B0
:100890001092060188E080930701109208011092DF
:1008A000090110920A018CE180930B0188E080938A
:1008B0000C0183E080930D0110926401109263019A
:1008C0000000DF91CF910895CF93DF93CDB7DEB7CE
:1008D0001092050110920601109207011092080172
:1008E0001092090110920A010000DF91CF91089542
:1008F000CF93DF9300D0CDB7DEB78FEF9FEF9A8312
:10090000898380910D01882F90E08130910521F03D
:10091000069709F4D2C09CC180910401882F90E011
:100920008C31910509F471C08D31910544F4873003
:10093000910509F4A4C00E9709F484C0BDC08037A6
:10094000910519F1803E910519F0C897D9F1B4C00D
:1009500080910C01882F90E08034910559F0803807
:10096000910519F0809759F00FC086E090E09A83C6
:1009700089830AC082E090E09A83898305C086E07B
:1009800090E09A838983000097C080910C01882FA2
:1009900090E08032910559F08034910519F040972C
:1009A00059F00FC085E090E09A8389830AC082E005
:1009B00090E09A83898305C086E090E09A838983DA
:1009C00000007AC064EA70ED82E893E40E94EC02D1
:1009D00080910C01882F90E08031910559F0803290
:1009E000910519F0089759F00FC085E090E09A83BF
:1009F00089830AC082E090E09A83898305C086E0FB
:100A000090E09A838983000057C080910C01882F61
:100A100090E08830910559F08031910519F00497E4
:100A200059F00FC085E090E09A8389830AC082E084
:100A300090E09A83898305C086E090E09A83898359
:100A400000003AC080910C01882F90E0843091051D
:100A500059F08830910519F0029759F00FC085E0E0
:100A600090E09A8389830AC082E090E09A83898328
:100A700005C086E090E09A83898300001DC08091C4
:100A80000C01882F90E08230910559F08430910557
:100A900019F0019759F00FC085E090E09A8389839F
:100AA0000AC082E090E09A83898305C085E090E0E7
:100AB0009A83898300000000CBC080910B01882FAE
:100AC00090E08C31910509F46BC08D31910544F4AF
:100AD0008730910509F49EC00E9709F47EC0B7C017
:100AE0008037910519F1803E910519F0C897D9F129
:100AF000AEC080910C01882F90E08034910559F0B0
:100B00008038910519F0809759F00FC084E090E08B
:100B10009A8389830AC081E090E09A83898305C023
:100B200084E090E09A838983000091C080910C0159
:100B3000882F90E08032910559F08034910519F0AA
:100B4000409759F00FC083E090E09A8389830AC0F0
:100B500081E090E09A83898305C084E090E09A83E5
:100B60008983000074C080910C01882F90E080314F
:100B7000910559F08032910519F0089759F00FC08E
:100B800083E090E09A8389830AC081E090E09A83B1
:100B9000898305C084E090E09A838983000057C070
:100BA00080910C01882F90E08830910559F08031B8
:100BB000910519F0049759F00FC083E090E09A83F3
:100BC00089830AC081E090E09A83898305C084E02C
:100BD00090E09A83898300003AC080910C01882FAD
:100BE00090E08430910559F08830910519F0029712
:100BF00059F00FC083E090E09A8389830AC081E0B6
:100C000090E09A83898305C084E090E09A83898389
:100C100000001DC080910C01882F90E0823091056A
:100C200059F08430910519F0019759F00FC083E015
:100C300090E09A8389830AC081E090E09A83898357
:100C400005C083E090E09A838983000000000000E3
:100C500089819A810F900F90DF91CF910895CF9362
:100C6000DF9300D01F92CDB7DEB79B838A8380E2EB
:100C700090E0FC0180818095847089838A819B81CA
:100C8000009719F00197B9F021C08981882381F07C
:100C900081E090E09B838A838091250180958093F9
:100CA0002501809125018823A1F40E943F0411C0F1
:100CB0001B821A820EC08981882329F081E090E08E
:100CC0009B838A8307C01B821A8204C01B821A82FC
:100CD00001C000008A819B810F900F900F90DF91DF
:100CE000CF910895CF93DF9300D000D0CDB7DEB77A
:100CF0009C838B8380E290E0FC018081882F90E0D0
:100D00008170992721E0892B09F020E0298380E276
:100D100090E0FC018081809582708A838B819C8128
:100D20008130910551F182309105A9F1892B09F0AB
:100D300040C09091040180EE981769F08981882362
:100D400051F080910401880F8093040181E090E0CC
:100D50009C838B8331C09091040187E0981761F1E7
:100D60008A81882349F1809104018695809304014A
:100D700082E090E09C838B831FC08981882329F0C7
:100D800081E090E09C838B8319C089818823B1F432
:100D90001C821B8213C08A81882329F082E090E0A4
:100DA0009C838B830DC08A81882351F41C821B8213
:100DB00007C01C821B8205C0000003C0000001C0E8
:100DC00000008B819C810F900F900F900F90DF910E
:100DD000CF910895CF93DF9300D000D0CDB7DEB789
:100DE0009C838B8380E290E0FC01808180958870F9
:100DF000898380E290E0FC018081809580718A8304
:100E00008B819C818130910551F182309105A9F14E
:100E1000892B09F040C090910B0180EE981769F082
:100E20008981882351F080910B01880F80930B01F9
:100E300081E090E09C838B8331C090910B0187E02F
:100E4000981761F18A81882349F180910B01869579
:100E500080930B0182E090E09C838B831FC089818B
:100E6000882329F081E090E09C838B8319C08981DD
:100E70008823B1F41C821B8213C08A81882329F045
:100E800082E090E09C838B830DC08A81882351F49B
:100E90001C821B8207C01C821B8205C0000003C08D
:100EA000000001C000008B819C810F900F900F907B
:100EB0000F90DF91CF910895CF93DF9300D01F92D1
:100EC000CDB7DEB79B838A830E94FB0E2AE030E019
:100ED000B9010E94C90C89838A819B81092E000C6B
:100EE000AA0BBB0B40E050E026E030E0841B950BE2
:100EF0002817390708F4DBC0895A9F4FFC010C946E
:100F0000FF0C80912501882319F41B821A82D2C01C
:100F10008981853028F081E090E09B838A83CAC074
:100F20008981853008F0C6C082E090E09B838A8387
:100F3000C1C080912501882329F40E943F041B82AF
:100F40001A82B9C080910D01813029F40E94780481
:100F50009B838A83B0C081E090E09B838A83ABC08F
:100F600080912501882329F40E943F041B821A8264
:100F7000A2C080910D01863029F40E9478049B83E1
:100F80008A8399C082E090E09B838A8394C0809199
:100F90002501882329F40E943F041B821A828BC0FA
:100FA00080910C01803849F480910D01863029F040
:100FB00086E090E09B838A837EC080910D0186301D
:100FC00029F40E9478049B838A8375C085E090E0B1
:100FD0009B838A8370C080912501882329F40E9415
:100FE0003F041B821A8267C080910C01813049F452
:100FF00080910D01863029F085E090E09B838A8303
:101000005AC080910D01863029F40E9478049B8398
:101010008A8351C086E090E09B838A834CC0809194
:101020002501882329F40E943F041B821A8243C0B1
:1010300080910C01803849F480910D01813029F0B4
:1010400084E090E09B838A8336C080910D018130DB
:1010500029F40E9478049B838A832DC083E090E06A
:101060009B838A8328C080912501882329F40E94CC
:101070003F041B821A821FC080910C01813049F409
:1010800080910D01813029F083E090E09B838A8379
:1010900012C080910D01813029F40E9478049B8355
:1010A0008A8309C084E090E09B838A8304C01B820A
:1010B0001A8201C000008A819B81049731F464EA9E
:1010C00070ED82E893E40E94EC028A819B81092EF4
:1010D000000CAA0BBB0B40E050E026E030E0841B84
:1010E000950B2817390708F4D2C0825A9F4FFC018C
:1010F0000C94FF0C1092640110926301C9C081E04E
:1011000090E0909364018093630180910D01882F9A
:1011100090E08C5F9E4FFC01108280910D01815008
:1011200080930D0180910D01882F90E020910C019A
:101130008C5F9E4FFC012083ABC082E090E09093D7
:1011400064018093630180910D01882F90E08C5F92
:101150009E4FFC01108280910D018F5F80930D01E5
:1011600080910D01882F90E020910C018C5F9E4FA3
:10117000FC0120838DC085E090E090936401809312
:10118000630180910D01882F90E08C5F9E4FFC01E0
:10119000108280910C01880F80930C0180910D01C9
:1011A0008F5F80930D0180910D01882F90E0209139
:1011B0000C018C5F9E4FFC0120836AC086E090E0AA
:1011C000909364018093630180910D01882F90E0DA
:1011D0008C5F9E4FFC01108280910C01869580935C
:1011E0000C0180910D018F5F80930D0180910D01A5
:1011F000882F90E020910C018C5F9E4FFC01208392
:1012000047C083E090E090936401809363018091F4
:101210000D01882F90E08C5F9E4FFC011082809121
:101220000C01880F80930C0180910D0181508093F7
:101230000D0180910D01882F90E020910C018C5FB1
:101240009E4FFC01208324C084E090E090936401D1
:101250008093630180910D01882F90E08C5F9E4FF9
:10126000FC01108280910C01869580930C01809185
:101270000D01815080930D0180910D01882F90E028
:1012800020910C018C5F9E4FFC01208301C0000067
:101290008A819B810F900F900F90DF91CF910895DD
:1012A000CF93DF9300D0CDB7DEB79A83898389814E
:1012B0009A81892B19F01A82198201C00000898154
:1012C0009A81892B09F03BC090912A0188E09817F8
:1012D00061F188E290E020912B012095FC012083B0
:1012E0008BE290E020910E01FC01208380912A0185
:1012F000873031F480912A018F5F80932A010FC0DB
:1013000080912A018F5F80932A0180912A01882F82
:1013100090E08C5F9E4FFC01808180932B01809137
:101320000E01880F80930E0109C010922A0180914E
:10133000040180932B0181E080930E0100008981DC
:101340009A810F900F90DF91CF9108950F931F9383
:10135000CF93DF93CDB7DEB765970FB6F894DEBFB6
:101360000FBECDBF81E290E0FC01108282E290E0EE
:101370002FEFFC01208384E290E02FEFFC0120831B
:1013800085E290E0FC01108287E290E02FEFFC0103
:10139000208388E290E0FC0110828AE290E02FEF47
:1013A000FC0120838BE290E0FC0110828AE0E6E100
:1013B000F1E0DE011C9601900D928A95E1F785E03F
:1013C00090E098878F838FEF89871B861A868A859E
:1013D0009B85880F991F9E012F5F3F4F820F931FA0
:1013E0000B96FC01808191812985FC0120838A85EF
:1013F0009B85880F991F9E012F5F3F4F820F931F80
:101400000B96FC01208131818AE090E0A0E0B0E001
:10141000F90181839283A383B4838A859B85880F96
:10142000991F9E012F5F3F4F820F931F0B96FC0168
:10143000208131818A859B85880F991FAE014F5F7E
:101440005F4F840F951F0B96FC0180819181FC01F9
:1014500081819281A381B481F90185839683A783D9
:10146000B0878A859B85880F991F9E012F5F3F4F0C
:10147000820F931F0B96FC018081918122E736E059
:10148000FC01328721878A859B8501969B878A8705
:101490008A859B85880F991F9E012F5F3F4F820F82
:1014A000931F0B96FC01808191812985FC0120838B
:1014B0008A859B85880F991F9E012F5F3F4F820F62
:1014C000931F0B96FC01208131818AE090E0A0E01F
:1014D000B0E0F90181839283A383B4838A859B85DD
:1014E000880F991F9E012F5F3F4F820F931F0B960E
:1014F000FC01208131818A859B85880F991FAE016F
:101500004F5F5F4F840F951F0B96FC018081918187
:10151000FC0181819281A381B481F9018583968345
:10152000A783B0878A859B85880F991F9E012F5FAF
:101530003F4F820F931F0B96FC01808191812AEE11
:1015400036E0FC01328721878A859B8501969B873F
:101550008A878A859B85880F991F9E012F5F3F4F41
:10156000820F931F0B96FC01808191812985FC01DC
:1015700020838A859B85880F991F9E012F5F3F4F8F
:10158000820F931F0B96FC012081318184EF91E043
:10159000A0E0B0E0F90181839283A383B4838A85BC
:1015A0009B85880F991F9E012F5F3F4F820F931FCE
:1015B0000B96FC01208131818A859B85880F991FBC
:1015C000AE014F5F5F4F840F951F0B96FC0180812A
:1015D0009181FC0181819281A381B481F90185838C
:1015E0009683A783B0878A859B85880F991F9E0164
:1015F0002F5F3F4F820F931F0B96FC0180819181DB
:101600002CE537E0FC01328721878A859B8501968E
:101610009B878A878A859B85880F991F9E012F5FEC
:101620003F4F820F931F0B96FC018081918129858A
:10163000FC0120838A859B85880F991F9E012F5F5F
:101640003F4F820F931F0B96FC012081318181E077
:1016500090E0A0E0B0E0F90181839283A383B4839A
:101660008A859B85880F991F9E012F5F3F4F820FB0
:10167000931F0B96FC01208131818A859B85880F01
:10168000991FAE014F5F5F4F840F951F0B96FC01B2
:1016900080819181FC0181819281A381B481F901D2
:1016A00085839683A783B0878A859B85880F991F3A
:1016B0009E012F5F3F4F820F931F0B96FC0180818D
:1016C000918120E539E0FC01328721878A859B855D
:1016D00001969B878A878A859B85880F991F9E0123
:1016E0002F5F3F4F820F931F0B96FC0180819181EA
:1016F0002985FC0120838A859B85880F991F9E017F
:101700002F5F3F4F820F931F0B96FC012081318189
:1017100084E190E0A0E0B0E0F90181839283A383AB
:10172000B4838A859B85880F991F9E012F5F3F4F49
:10173000820F931F0B96FC01208131818A859B8546
:10174000880F991FAE014F5F5F4F840F951F0B9657
:10175000FC0180819181FC0181819281A381B4810E
:10176000F90185839683A783B0878A859B85880F37
:10177000991F9E012F5F3F4F820F931F0B96FC0115
:10178000808191812FE236E0FC01328721878A85B2
:101790009B8501969B878A871A8219828C859D85F5
:1017A000FC0181819281A381B4818B839C83AD8371
:1017B000BE8381E090E09A83898325C089819A81E4
:1017C000880F991F9E012F5F3F4F820F931F0B962B
:1017D000FC0180819181FC0121813281438154810E
:1017E0008B819C81AD81BE81BC01CD010E946401D1
:1017F000DC01CB018B839C83AD83BE8389819A817D
:1018000001969A83898329813A818F819885281747
:101810003907A0F28B819C81AD81BE81BC01CD01D5
:101820000E9486000E94B4000E948C031A821982D2
:10183000A0C089819A81880F991F9E012F5F3F4F19
:10184000820F931F0B96FC0180819181FC01258101
:1018500036814781508589819A81880F991FBE0101
:101860006F5F7F4F860F971F0B96FC0180819181E0
:10187000FC0181819281A381B481281739074A072D
:101880005B0708F445C089819A81880F991F9E01E2
:101890002F5F3F4F820F931F0B96FC010081118138
:1018A00089819A81880F991F9E012F5F3F4F820F78
:1018B000931F0B96FC0180819181FC01218532856B
:1018C00089819A81880F991FAE014F5F5F4F840F06
:1018D000951F0B96FC0180819181FC018081082E6F
:1018E000000C990BF9010995F801808389819A818F
:1018F000880F991F9E012F5F3F4F820F931F0B96FA
:10190000FC0180819181FC0115821682178210866C
:1019100089819A81880F991F9E012F5F3F4F820F07
:10192000931F0B96FC016081718189819A81880FD8
:10193000991F9E012F5F3F4F820F931F0B96FC0153
:1019400080819181FC0125813681478150858B8181
:101950009C81AD81BE81820F931FA41FB51FFB0127
:1019600085839683A783B08789819A8101969A831C
:10197000898329813A818F8198852817390708F44E
:1019800058CF0000809120018823E1F310922001BC
:101990004DCF97FB072E16F4009407D077FD09D0A2
:1019A0000E94080D07FC05D03EF4909581959F4F4D
:1019B0000895709561957F4F0895A1E21A2EAA1B94
:1019C000BB1BFD010DC0AA1FBB1FEE1FFF1FA217EF
:1019D000B307E407F50720F0A21BB30BE40BF50BEC
:1019E000661F771F881F991F1A9469F76095709575
:1019F000809590959B01AC01BD01CF010895EE0F3C
:101A0000FF1F0024001C0BBE0790F691E02D0994E7
:101A1000AA1BBB1B51E107C0AA1FBB1FA617B70714
:101A200010F0A61BB70B881F991F5A95A9F7809530
:101A30009095BC01CD0108950E94C90D08F481E084
:101A400008950E94350D0C94040E0E94FD0D58F06F
:101A50000E94F60D40F029F45F3F29F00C94ED0D43
:101A600051110C94380E0C94F30D0E94150E68F36E
:101A70009923B1F3552391F3951B550BBB27AA2747
:101A800062177307840738F09F5F5F4F220F331F81
:101A9000441FAA1FA9F335D00E2E3AF0E0E832D049
:101AA00091505040E695001CCAF72BD0FE2F29D04C
:101AB000660F771F881FBB1F261737074807AB071E
:101AC000B0E809F0BB0B802DBF01FF2793585F4F93
:101AD0003AF09E3F510578F00C94ED0D0C94380EC1
:101AE0005F3FE4F3983ED4F3869577956795B79575
:101AF000F7959F5FC9F7880F911D9695879597F980
:101B00000895E1E0660F771F881FBB1F62177307F8
:101B10008407BA0720F0621B730B840BBA0BEE1F0D
:101B200088F7E09508950E949A0D6894B1110C947D
:101B3000380E08950E941D0E88F09F5798F0B92F17
:101B40009927B751B0F0E1F0660F771F881F991FF2
:101B50001AF0BA95C9F714C0B13091F00E94370E4F
:101B6000B1E008950C94370E672F782F8827B85F5F
:101B700039F0B93FCCF3869577956795B395D9F74A
:101B80003EF490958095709561957F4F8F4F9F4F54
:101B90000895990F0008550FAA0BE0E8FEEF1616FE
:101BA0001706E807F907C0F012161306E407F50751
:101BB00098F0621B730B840B950B39F40A2661F0C5
:101BC000232B242B252B21F408950A2609F4A14068
:101BD000A6958FEF811D811D089597F99F6780E875
:101BE00070E060E008959FEF80EC089500240A946F
:101BF0001616170618060906089500240A941216E8
:101C00001306140605060895092E0394000C11F41A
:101C1000882352F0BB0F40F4BF2B11F460FF04C0C7
:101C20006F5F7F4F8F4F9F4F089557FD9058440F20
:101C3000551F59F05F3F71F04795880F97FB991F2B
:101C400061F09F3F79F087950895121613061406E8
:101C5000551FF2CF4695F1DF08C016161706180675
:101C6000991FF1CF86957105610508940895E89450
:101C7000BB2766277727CB0197F908950E94C90DE6
:101C800008F48FEF08950E94560E0C94040E0E94E3
:101C9000F60D38F00E94FD0D20F0952311F00C9404
:101CA000ED0D0C94F30D11240C94380E0E94150EBA
:101CB00070F3959FC1F3950F50E0551F629FF0019F
:101CC000729FBB27F00DB11D639FAA27F00DB11DB8
:101CD000AA1F649F6627B00DA11D661F829F222741
:101CE000B00DA11D621F739FB00DA11D621F839FC8
:101CF000A00D611D221F749F3327A00D611D231F9E
:101D0000849F600D211D822F762F6A2F11249F57EB
:101D100050409AF0F1F088234AF0EE0FFF1FBB1FEE
:101D2000661F771F881F91505040A9F79E3F5105AD
:101D300080F00C94ED0D0C94380E5F3FE4F3983E68
:101D4000D4F3869577956795B795F795E7959F5F57
:101D5000C1F7FE2B880F911D9695879597F90895E9
:101D60008F929F92AF92BF92CF92DF92EF92FF92AB
:101D7000CF93DF93EC01688179818A819B81611522
:101D800071058105910521F464E279ED8BE597E019
:101D90002DE133EF41E050E00E940A0F49015A0162
:101DA0009B01AC01A7EAB1E40E94290F6B017C0101
:101DB000ACEEB4EFA50194010E94370FDC01CB011A
:101DC0008C0D9D1DAE1DBF1DB7FF03C00197A1095E
:101DD000B04888839983AA83BB839F77DF91CF9193
:101DE000FF90EF90DF90CF90BF90AF909F908F903B
:101DF00008950C94B00E8FE091E00C94B00EA0E02A
:101E0000B0E080930F0190931001A0931101B09363
:101E100012010895052E97FB1EF400940E94210FD5
:101E200057FD07D00E94DD0C07FC03D04EF40C9444
:101E3000210F50954095309521953F4F4F4F5F4F63
:101E4000089590958095709561957F4F8F4F9F4F26
:101E500008950E943C0FA59F900DB49F900DA49FE4
:101E6000800D911D11240895B7FF0C94290F0E9435
:101E7000290F821B930B0895A29FB001B39FC0014D
:101E8000A39F700D811D1124911DB29F700D811DA6
:0A1E90001124911D0895F894FFCF6E
:101E9A00010000001C0000080000001C08030101EA
:101EAA0000000008E00758014D01420137012C01EA
:00000001FF
