:100000000C9457000C9476000C9476000C947600B7
:100010000C9476000C9476000C9476000C94760088
:100020000C9476000C9476000C9476000C94760078
:100030000C9476000C94F4000C9476000C947600EA
:100040000C9476000C9476000C9476000C94760058
:100050000C9476000C9476000C9476000C94760048
:100060000C9476000C9476000C9476000C94760038
:100070000C9476000C9476000C9476000C94760028
:100080000C9476000C9476000C947600C103C703A0
:10009000CD03D303D903DF03E503EB03F103F70338
:1000A000FD03030409040F0415041B042004112498
:1000B0001FBECFEFD0E4DEBFCDBF11E0A0E0B1E0C6
:1000C000E8EBF7E100E00BBF02C007900D92AE3104
:1000D000B107D9F721E0AEE1B1E001C01D92A6352C
:1000E000B207E1F70E9496060C94DA0B0C9400001C
:1000F000CF93DF9300D000D0CDB7DEB769837A838A
:100100008B839C8389819A81AB81BC818093000120
:1001100090930101A0930201B0930301809100012B
:1001200090910101A0910201B091030180931F0100
:1001300090932001A0932101B093220100000F9021
:100140000F900F900F90DF91CF910895CF93DF9391
:10015000CDB7DEB781E890E02BE0FC01208388E892
:1001600090E02DE730E0FC01318320838FE690E0C2
:1001700022E0FC01208384E890E0FC0111821082DF
:100180008091000190910101A0910201B0910301C1
:1001900080931F0190932001A0932101B09322012D
:1001A0008FE590E02FE530E0F90120812068FC0127
:1001B00020830000DF91CF910895CF93DF93CDB7D7
:1001C000DEB781E890E0FC0110820000DF91CF9162
:1001D0000895CF93DF93CDB7DEB781E080931E0102
:1001E0000000DF91CF9108951F920F9200905F0061
:1001F0000F92112400905B000F922F933F934F9327
:100200005F936F937F938F939F93AF93BF93EF937E
:10021000FF93CF93DF93CDB7DEB780911F0190910D
:100220002001A0912101B09122010197A109B109FA
:1002300080931F0190932001A0932101B09322018C
:1002400080911F0190912001A0912101B091220184
:10025000892B8A2B8B2B91F40E94E900809100015D
:1002600090910101A0910201B091030180931F01BF
:1002700090932001A0932101B09322010000DF910F
:10028000CF91FF91EF91BF91AF919F918F917F910E
:100290006F915F914F913F912F910F9000925B0072
:1002A0000F9000925F000F901F901895CF93DF93EF
:1002B000CDB7DEB72C970FB6F894DEBF0FBECDBF1B
:1002C0006D837E838F83988729873A874B875C87E6
:1002D0008D819E81AF81B88529853A854B855C8566
:1002E000BC01CD010E946C09DC01CB0189839A839A
:1002F000AB83BC8389819A81AB81BC81892B8A2B9A
:100300008B2B29F489859A85AB85BC8511C089859D
:100310009A85AB85BC858D839E83AF83B8878981A1
:100320009A81AB81BC8189879A87AB87BC87D0CF04
:10033000BC01CD012C960FB6F894DEBF0FBECDBF29
:10034000DF91CF910895CF93DF9300D01F92CDB767
:10035000DEB789836A834B838B81882371F08A811E
:10036000282F30E081E090E002C0880F991F2A9585
:10037000E2F7982F8981892B0EC08A81282F30E0DF
:1003800081E090E002C0880F991F2A95E2F7982F2C
:100390009095898189230F900F900F90DF91CF91D5
:1003A0000895CF93DF9300D0CDB7DEB789836A83FA
:1003B0008A81282F30E081E090E002C0880F991FE9
:1003C0002A95E2F7982F898189230F900F90DF916A
:1003D000CF9108950F931F93CF93DF93CDB7DEB7DF
:1003E00008E210E040E064E08FEF0E94A301F80112
:1003F0008083000086E290E0FC018081809560E0CF
:100400000E94D101882311F081E3D3C086E290E0FD
:10041000FC018081809561E00E94D101882311F068
:1004200084E3C7C086E290E0FC018081809562E0B1
:100430000E94D101882311F087E3BBC086E290E0DF
:10044000FC018081809563E00E94D101882311F036
:100450008AE2AFC008E210E040E065E08FEF0E9462
:10046000A301F8018083000086E290E0FC01808116
:10047000809560E00E94D101882311F082E399C049
:1004800086E290E0FC018081809561E00E94D101CC
:10049000882311F085E38DC086E290E0FC01808125
:1004A000809562E00E94D101882311F088E381C029
:1004B00086E290E0FC018081809563E00E94D1019A
:1004C000882311F080E375C008E210E040E066E0A8
:1004D0008FEF0E94A301F8018083000086E290E084
:1004E000FC018081809560E00E94D101882311F099
:1004F00083E35FC086E290E0FC018081809561E04B
:100500000E94D101882311F086E353C086E290E077
:10051000FC018081809562E00E94D101882311F066
:1005200089E347C086E290E0FC018081809563E02A
:100530000E94D101882311F083E23BC008E210E061
:1005400040E067E08FEF0E94A301F8018083000084
:1005500086E290E0FC018081809560E00E94D101FC
:10056000882311F081E425C086E290E0FC018081BF
:10057000809561E00E94D101882311F082E419C0C6
:1005800086E290E0FC018081809562E00E94D101CA
:10059000882311F083E40DC086E290E0FC018081A5
:1005A000809563E00E94D101882311F084E401C0AA
:1005B00080E0DF91CF911F910F9108950F931F93CA
:1005C000CF93DF9300D000D0CDB7DEB769837A83B5
:1005D0008B839C838091240190912501A091260119
:1005E000B09127019C01AD0169817A818B819C8149
:1005F0000E94AB09882309F477C020E030E0A9010C
:1006000069817A818B819C810E94AB09882351F496
:1006100081E990E021E930E0F90120812870FC01B6
:10062000208309C081E990E021E930E0F9012081CF
:100630002360FC01208328E539E344E75FE3698117
:100640007A818B819C810E94AB09882344F488E9DC
:1006500090E02FEF3FEFFC013183208334C020E096
:1006600034E244EF56E469817A818B819C810E9457
:10067000CD0A181634F488E990E0FC01118210824A
:1006800022C008E910E020E030E040E053E4698156
:100690007A818B819C810E94D20ADC01CB019C0172
:1006A000AD0160E074E284EF9AE40E94B009DC01DD
:1006B000CB01BC01CD010E94220ADC01CB010197D4
:1006C000F8019183808384E990E0FC01118210821B
:1006D00089819A81AB81BC8180932401909325010B
:1006E000A0932601B093270100000F900F900F9068
:1006F0000F90DF91CF911F910F910895CF93DF93CA
:10070000CDB7DEB780E990E020E4FC01208381E9E9
:1007100090E02BE0FC01208360E070E0CB010E94C0
:10072000DE020000DF91CF910895CF93DF93CDB724
:10073000DEB780E990E0FC01108281E990E0FC01E5
:1007400010820000DF91CF910895CF93DF931F9225
:10075000CDB7DEB789838981882F90E0092E000C00
:10076000AA0BBB0B40E050E020E130E0841B950B6E
:100770002817390708F46AC08A5B9F4FFC010C9464
:100780008E0985E290E02FE1FC01208365C085E2BF
:1007900090E021E0FC0120835FC085E290E022E050
:1007A000FC01208359C085E290E023E0FC01208316
:1007B00053C085E290E024E0FC0120834DC085E237
:1007C00090E025E0FC01208347C085E290E026E030
:1007D000FC01208341C085E290E027E0FC012083FA
:1007E0003BC085E290E028E0FC01208335C085E233
:1007F00090E029E0FC0120832FC085E290E02AE010
:10080000FC01208329C085E290E02BE0FC012083DD
:1008100023C085E290E02CE0FC0120831DC085E22E
:1008200090E02DE0FC01208317C085E290E02EE0EF
:10083000FC01208311C085E290E0FC0110820CC015
:1008400085E290E02FE0FC01208306C085E290E085
:100850002BE1FC012083000000000F90DF91CF917D
:100860000895CF93DF93CDB7DEB78CE18093040179
:10087000109205011092060188E080930701109202
:1008800008011092090110920A018CE180930B017A
:1008900088E080930C0183E080930D010000DF91DC
:1008A000CF910895CF93DF93CDB7DEB710920501B6
:1008B000109206011092070110920801109209018E
:1008C00010920A010000DF91CF910895CF93DF933A
:1008D00000D0CDB7DEB78FEF9FEF9A8389838091E9
:1008E0000D01882F90E08130910519F0069761F194
:1008F00056C080910401882F90E08C319105A9F0B9
:100900008D31910534F487309105E1F00E97C9F0EF
:1009100019C08037910539F0803E910519F0C197D3
:1009200019F010C000000000000080910C01882F19
:1009300090E0089709F005C082E090E09A838983EF
:100940000000000000002BC080910B01882F90E078
:100950008C319105A9F08D31910534F487309105E2
:10096000E1F00E97C9F019C08037910539F0803E4B
:10097000910519F0C19719F010C0000000000000A7
:1009800080910C01882F90E0089709F005C081E064
:1009900090E09A83898300000000000000008981B4
:1009A0009A810F900F90DF91CF910895CF93DF93AD
:1009B00000D01F92CDB7DEB79B838A8380E290E0A0
:1009C000FC0180818095847089838A819B81009756
:1009D00019F00197B9F021C08981882381F081E065
:1009E00090E09B838A8380912301809580932301EB
:1009F000809123018823A1F40E94310411C01B823D
:100A00001A820EC08981882329F081E090E09B83BF
:100A10008A8307C01B821A8204C01B821A8201C00B
:100A200000008A819B810F900F900F90DF91CF91F2
:100A30000895CF93DF9300D000D0CDB7DEB79C836D
:100A40008B8380E290E0FC018081882F90E08170B0
:100A5000992721E0892B09F020E0298380E290E0AA
:100A6000FC018081809582708A838B819C8181309A
:100A7000910551F182309105A9F1892B09F040C00F
:100A80009091040180EE981769F08981882351F0D4
:100A900080910401880F8093040181E090E09C83A1
:100AA0008B8331C09091040187E0981761F18A81AE
:100AB000882349F18091040186958093040182E0A6
:100AC00090E09C838B831FC08981882329F081E07B
:100AD00090E09C838B8319C089818823B1F41C82A8
:100AE0001B8213C08A81882329F082E090E09C83D6
:100AF0008B830DC08A81882351F41C821B8207C01E
:100B00001C821B8205C0000003C0000001C0000061
:100B10008B819C810F900F900F900F90DF91CF9160
:100B20000895CF93DF9300D01F92CDB7DEB79B839C
:100B30008A830E948A0B2AE030E0B9010E9458099A
:100B4000898380910D010E94A5038A819B81813058
:100B50009105E9F08230910581F1892B09F044C0BB
:100B600080912301882319F41B821A8240C0898155
:100B7000853028F081E090E09B838A8338C08981AA
:100B80008530A8F582E090E09B838A8330C0809115
:100B90002301882321F40E9431041B821A82809150
:100BA0000D01813029F40E9466049B838A8320C052
:100BB00081E090E09B838A831BC08091230188237E
:100BC00029F40E9431041B821A8212C080910D0107
:100BD000863029F40E9466049B838A8309C082E0E0
:100BE00090E09B838A8304C01B821A8201C00000AC
:100BF0008A819B818130910531F082309105D9F055
:100C0000892B89F131C080910D01882F90E08C5F94
:100C10009E4FFC01108280910D01815080930D0147
:100C200080910D01882F90E020910C018C5F9E4FE8
:100C3000FC01208319C080910D01882F90E08C5F0A
:100C40009E4FFC01108280910D018F5F80930D01FA
:100C500080910D01882F90E020910C018C5F9E4FB8
:100C6000FC01208301C0000080910D010E94A503BA
:100C70008A819B810F900F900F90DF91CF91089503
:100C8000CF93DF9300D0CDB7DEB79A838983898174
:100C90009A81892B19F01A82198201C0000089817A
:100CA0009A81892B09F03BC09091280188E0981720
:100CB00061F188E290E0209129012095FC012083D8
:100CC0008BE290E020910E01FC01208380912801AD
:100CD000873031F4809128018F5F809328010FC005
:100CE000809128018F5F8093280180912801882FAF
:100CF00090E08C5F9E4FFC01808180932901809160
:100D00000E01880F80930E0109C010922801809176
:100D100004018093290181E080930E010000898104
:100D20009A810F900F90DF91CF9108950F931F93A9
:100D3000CF93DF93CDB7DEB763970FB6F894DEBFDE
:100D40000FBECDBF81E290E0FC01108282E290E014
:100D50002FEFFC01208384E290E02FEFFC01208341
:100D600085E290E0FC01108287E290E02FEFFC0129
:100D7000208388E290E0FC0110828AE290E02FEF6D
:100D8000FC0120838BE290E0FC01108288E0E6E128
:100D9000F1E0DE011C9601900D928A95E1F784E066
:100DA00090E098878F838FEF89871B861A868A85C4
:100DB0009B85880F991F9E012F5F3F4F820F931FC6
:100DC0000B96FC01808191812985FC0120838A8515
:100DD0009B85880F991F9E012F5F3F4F820F931FA6
:100DE0000B96FC01208131818AE090E0A0E0B0E028
:100DF000F90181839283A383B4838A859B85880FBD
:100E0000991F9E012F5F3F4F820F931F0B96FC018E
:100E1000208131818A859B85880F991FAE014F5FA4
:100E20005F4F840F951F0B96FC0180819181FC011F
:100E300081819281A381B481F90185839683A783FF
:100E4000B0878A859B85880F991F9E012F5F3F4F32
:100E5000820F931F0B96FC018081918129E135E07F
:100E6000FC01328721878A859B8501969B878A872B
:100E70008A859B85880F991F9E012F5F3F4F820FA8
:100E8000931F0B96FC01808191812985FC012083B1
:100E90008A859B85880F991F9E012F5F3F4F820F88
:100EA000931F0B96FC012081318184EF91E0A0E03B
:100EB000B0E0F90181839283A383B4838A859B8503
:100EC000880F991F9E012F5F3F4F820F931F0B9634
:100ED000FC01208131818A859B85880F991FAE0195
:100EE0004F5F5F4F840F951F0B96FC0180819181AE
:100EF000FC0181819281A381B481F901858396836C
:100F0000A783B0878A859B85880F991F9E012F5FD5
:100F10003F4F820F931F0B96FC018081918121E945
:100F200035E0FC01328721878A859B8501969B8766
:100F30008A878A859B85880F991F9E012F5F3F4F67
:100F4000820F931F0B96FC01808191812985FC0102
:100F500020838A859B85880F991F9E012F5F3F4FB5
:100F6000820F931F0B96FC012081318181E090E07C
:100F7000A0E0B0E0F90181839283A383B4838A85E2
:100F80009B85880F991F9E012F5F3F4F820F931FF4
:100F90000B96FC01208131818A859B85880F991FE2
:100FA000AE014F5F5F4F840F951F0B96FC01808150
:100FB0009181FC0181819281A381B481F9018583B2
:100FC0009683A783B0878A859B85880F991F9E018A
:100FD0002F5F3F4F820F931F0B96FC018081918101
:100FE00020E436E0FC01328721878A859B850196C3
:100FF0009B878A878A859B85880F991F9E012F5F13
:101000003F4F820F931F0B96FC01808191812985B0
:10101000FC0120838A859B85880F991F9E012F5F85
:101020003F4F820F931F0B96FC012081318184E199
:1010300090E0A0E0B0E0F90181839283A383B483C0
:101040008A859B85880F991F9E012F5F3F4F820FD6
:10105000931F0B96FC01208131818A859B85880F27
:10106000991FAE014F5F5F4F840F951F0B96FC01D8
:1010700080819181FC0181819281A381B481F901F8
:1010800085839683A783B0878A859B85880F991F60
:101090009E012F5F3F4F820F931F0B96FC018081B3
:1010A000918126ED34E0FC01328721878A859B857A
:1010B00001969B878A871A8219828C859D85FC01FF
:1010C00081819281A381B4818B839C83AD83BE8314
:1010D00081E090E09A83898325C089819A81880F75
:1010E000991F9E012F5F3F4F820F931F0B96FC01AC
:1010F00080819181FC0121813281438154818B81E6
:101100009C81AD81BE81BC01CD010E945601DC01F4
:10111000CB018B839C83AD83BE8389819A810196A9
:101120009A83898329813A818F8198852817390785
:10113000A0F28B819C81AD81BE81BC01CD010E945A
:1011400078000E94A6000E947E031A821982A0C025
:1011500089819A81880F991F9E012F5F3F4F820FCF
:10116000931F0B96FC0180819181FC0125813681C2
:101170004781508589819A81880F991FBE016F5FD1
:101180007F4F860F971F0B96FC0180819181FC0198
:1011900081819281A381B481281739074A075B07AF
:1011A00008F445C089819A81880F991F9E012F5F9D
:1011B0003F4F820F931F0B96FC01008111818981A3
:1011C0009A81880F991F9E012F5F3F4F820F931FB7
:1011D0000B96FC0180819181FC01218532858981FA
:1011E0009A81880F991FAE014F5F5F4F840F951F43
:1011F0000B96FC0180819181FC018081082E000CFE
:10120000990BF9010995F801808389819A81880FEA
:10121000991F9E012F5F3F4F820F931F0B96FC017A
:1012200080819181FC011582168217821086898146
:101230009A81880F991F9E012F5F3F4F820F931F46
:101240000B96FC016081718189819A81880F991FB9
:101250009E012F5F3F4F820F931F0B96FC018081F1
:101260009181FC0125813681478150858B819C814C
:10127000AD81BE81820F931FA41FB51FFB01858323
:101280009683A783B08789819A8101969A838983FF
:1012900029813A818F8198852817390708F458CF1A
:1012A000000080911E018823E1F310921E014DCFB2
:1012B00097FB072E16F4009407D077FD09D00E9403
:1012C000970907FC05D03EF4909581959F4F0895AE
:1012D000709561957F4F0895A1E21A2EAA1BBB1B42
:1012E000FD010DC0AA1FBB1FEE1FFF1FA217B307F2
:1012F000E407F50720F0A21BB30BE40BF50B661F08
:10130000771F881F991F1A9469F7609570958095CB
:1013100090959B01AC01BD01CF010895EE0FFF1F19
:101320000024001C0BBE0790F691E02D0994AA1B27
:10133000BB1B51E107C0AA1FBB1FA617B70710F0C0
:10134000A61BB70B881F991F5A95A9F780959095F2
:10135000BC01CD0108950E94580A08F481E0089567
:101360000E94C4090C94930A0E948C0A58F00E94AF
:10137000850A40F029F45F3F29F00C947C0A511152
:101380000C94C70A0C94820A0E94A40A68F3992359
:10139000B1F3552391F3951B550BBB27AA27621771
:1013A0007307840738F09F5F5F4F220F331F441F7E
:1013B000AA1FA9F335D00E2E3AF0E0E832D09150B2
:1013C0005040E695001CCAF72BD0FE2F29D0660F9F
:1013D000771F881FBB1F261737074807AB07B0E8E2
:1013E00009F0BB0B802DBF01FF2793585F4F3AF0E8
:1013F0009E3F510578F00C947C0A0C94C70A5F3F1D
:10140000E4F3983ED4F3869577956795B795F7956D
:101410009F5FC9F7880F911D9695879597F9089555
:10142000E1E0660F771F881FBB1F621773078407F1
:10143000BA0720F0621B730B840BBA0BEE1F88F700
:10144000E09508950E94290A6894B1110C94C70A86
:1014500008950E94AC0A88F09F5798F0B92F9927F9
:10146000B751B0F0E1F0660F771F881F991F1AF08F
:10147000BA95C9F714C0B13091F00E94C60AB1E024
:1014800008950C94C60A672F782F8827B85F39F023
:10149000B93FCCF3869577956795B395D9F73EF428
:1014A00090958095709561957F4F8F4F9F4F0895D0
:1014B000990F0008550FAA0BE0E8FEEF1616170665
:1014C000E807F907C0F012161306E407F50798F0CD
:1014D000621B730B840B950B39F40A2661F0232BE6
:1014E000242B252B21F408950A2609F4A140A69562
:1014F0008FEF811D811D089597F99F6780E870E047
:1015000060E008959FEF80EC089500240A94161679
:10151000170618060906089500240A9412161306E1
:10152000140605060895092E0394000C11F488236F
:1015300052F0BB0F40F4BF2B11F460FF04C06F5F8B
:101540007F4F8F4F9F4F089557FD9058440F551F61
:1015500059F05F3F71F04795880F97FB991F61F035
:101560009F3F79F087950895121613061406551FAC
:10157000F2CF4695F1DF08C0161617061806991F18
:10158000F1CF86957105610508940895E894BB270D
:1015900066277727CB0197F908950E94580A08F427
:1015A0008FEF08950E94E50A0C94930A0E94850A21
:1015B00038F00E948C0A20F0952311F00C947C0ADC
:1015C0000C94820A11240C94C70A0E94A40A70F396
:1015D000959FC1F3950F50E0551F629FF001729FD8
:1015E000BB27F00DB11D639FAA27F00DB11DAA1FE7
:1015F000649F6627B00DA11D661F829F2227B00D34
:10160000A11D621F739FB00DA11D621F839FA00DBE
:10161000611D221F749F3327A00D611D231F849F0E
:10162000600D211D822F762F6A2F11249F57504065
:101630009AF0F1F088234AF0EE0FFF1FBB1F661FE0
:10164000771F881F91505040A9F79E3F510580F0A9
:101650000C947C0A0C94C70A5F3FE4F3983ED4F3E1
:10166000869577956795B795F795E7959F5FC1F74D
:10167000FE2B880F911D9695879597F908958F9267
:101680009F92AF92BF92CF92DF92EF92FF92CF9351
:10169000DF93EC01688179818A819B8161157105F5
:1016A0008105910521F464E279ED8BE597E02DE168
:1016B00033EF41E050E00E94990B49015A019B0130
:1016C000AC01A7EAB1E40E94B80B6B017C01ACEE5F
:1016D000B4EFA50194010E94C60BDC01CB018C0D77
:1016E0009D1DAE1DBF1DB7FF03C00197A109B048E6
:1016F00088839983AA83BB839F77DF91CF91FF90E3
:10170000EF90DF90CF90BF90AF909F908F90089513
:101710000C943F0B8FE091E00C943F0BA0E0B0E005
:1017200080930F0190931001A0931101B0931201C7
:101730000895052E97FB1EF400940E94B00B57FDF0
:1017400007D00E946C0907FC03D04EF40C94B00B38
:1017500050954095309521953F4F4F4F5F4F0895DD
:1017600090958095709561957F4F8F4F9F4F08950D
:101770000E94CB0BA59F900DB49F900DA49F800D50
:10178000911D11240895B7FF0C94B80B0E94B80B5B
:10179000821B930B0895A29FB001B39FC001A39F2A
:1017A000700D811D1124911DB29F700D811D11249A
:0817B000911D0895F894FFCF8C
:1017B800010000001C0000080000001C08030101D3
:0E17C80000000008E0074B01400135012A0136
:00000001FF
