:100000000C9458000C9477000C9477000C947700B3
:100010000C9477000C9477000C9477000C94770084
:100020000C9477000C9477000C9477000C94770074
:100030000C9477000C94F5000C9477000C947700E6
:100040000C9477000C9477000C9477000C94770054
:100050000C9477000C9477000C9477000C94770044
:100060000C9477000C9477000C9477000C94770034
:100070000C9477000C9477000C9477000C94770024
:100080000C9477000C9477000C9477009709AF09D3
:10009000C609250A490ADD09010A6D0A7D0AA60A70
:1000A000AD0ACB0A2F0B520BE90A0C0B750B850B13
:1000B00011241FBECFEFD0E4DEBFCDBF11E0A0E022
:1000C000B1E0E4E9F7E200E00BBF02C007900D9257
:1000D000AC32B107D9F721E0ACE2B1E001C01D922A
:1000E000A23AB207E1F70E946B0C0C94C8130C946F
:1000F0000000CF93DF9300D000D0CDB7DEB7698387
:100100007A838B839C8389819A81AB81BC81809324
:10011000000190930101A0930201B093030180912B
:10012000000190910101A0910201B091030180931F
:100130002D0190932E01A0932F01B0933001000068
:100140000F900F900F900F90DF91CF910895CF9364
:10015000DF93CDB7DEB781E890E02BE0FC01208390
:1001600088E890E02DE730E0FC01318320838FE6C2
:1001700090E022E0FC01208384E890E0FC01118201
:1001800010828091000190910101A0910201B09133
:10019000030180932D0190932E01A0932F01B09322
:1001A00030018FE590E02FE530E0F90120812068F3
:1001B000FC0120830000DF91CF910895CF93DF935E
:1001C000CDB7DEB781E890E0FC0110820000DF913E
:1001D000CF910895CF93DF93CDB7DEB781E08093C1
:1001E0002C010000DF91CF9108951F920F92009093
:1001F0005F000F92112400905B000F922F933F93AA
:100200004F935F936F937F938F939F93AF93BF931E
:10021000EF93FF93CF93DF93CDB7DEB780912D019E
:1002200090912E01A0912F01B09130010197A10969
:10023000B10980932D0190932E01A0932F01B093CB
:10024000300180912D0190912E01A0912F01B0914C
:100250003001892B8A2B8B2B91F40E94EA0080912C
:10026000000190910101A0910201B09103018093DE
:100270002D0190932E01A0932F01B0933001000027
:10028000DF91CF91FF91EF91BF91AF919F918F91AE
:100290007F916F915F914F913F912F910F900092BD
:1002A0005B000F9000925F000F901F901895CF9306
:1002B000DF93CDB7DEB72C970FB6F894DEBF0FBE35
:1002C000CDBF6D837E838F83988729873A874B873D
:1002D0005C878D819E81AF81B88529853A854B8564
:1002E0005C85BC01CD010E945A11DC01CB018983E0
:1002F0009A83AB83BC8389819A81AB81BC81892B32
:100300008A2B8B2B29F489859A85AB85BC8511C0F6
:1003100089859A85AB85BC858D839E83AF83B8879D
:1003200089819A81AB81BC8189879A87AB87BC8799
:10033000D0CFBC01CD012C960FB6F894DEBF0FBE16
:10034000CDBFDF91CF910895CF93DF9300D01F925F
:10035000CDB7DEB789836A834B838B81882371F0A5
:100360008A81282F30E081E090E002C0880F991F39
:100370002A95E2F7982F8981892B0EC08A81282F30
:1003800030E081E090E002C0880F991F2A95E2F7E3
:10039000982F9095898189230F900F900F90DF916E
:1003A000CF910895CF93DF9300D0CDB7DEB7898387
:1003B0006A838A81282F30E081E090E002C0880FB4
:1003C000991F2A95E2F7982F898189230F900F9022
:1003D000DF91CF9108950F931F93CF93DF93CDB704
:1003E000DEB708E210E040E064E08FEF0E94A40175
:1003F000F8018083000086E290E0FC018081809516
:1004000060E00E94D201882311F081E3D3C086E22C
:1004100090E0FC018081809561E00E94D2018823F8
:1004200011F084E3C7C086E290E0FC0180818095F2
:1004300062E00E94D201882311F087E3BBC086E20C
:1004400090E0FC018081809563E00E94D2018823C6
:1004500011F08AE2AFC008E210E040E065E08FEF03
:100460000E94A401F8018083000086E290E0FC0174
:100470008081809560E00E94D201882311F082E3A0
:1004800099C086E290E0FC018081809561E00E9445
:10049000D201882311F085E38DC086E290E0FC0153
:1004A0008081809562E00E94D201882311F088E368
:1004B00081C086E290E0FC018081809563E00E942B
:1004C000D201882311F080E375C008E210E040E01B
:1004D00066E08FEF0E94A401F8018083000086E2AD
:1004E00090E0FC018081809560E00E94D201882329
:1004F00011F083E35FC086E290E0FC01808180958B
:1005000061E00E94D201882311F086E353C086E2A5
:1005100090E0FC018081809562E00E94D2018823F6
:1005200011F089E347C086E290E0FC01808180956C
:1005300063E00E94D201882311F083E23BC008E20D
:1005400010E040E067E08FEF0E94A401F801808393
:10055000000086E290E0FC018081809560E00E94CE
:10056000D201882311F081E425C086E290E0FC01ED
:100570008081809561E00E94D201882311F082E49D
:1005800019C086E290E0FC018081809562E00E94C3
:10059000D201882311F083E40DC086E290E0FC01D3
:1005A0008081809563E00E94D201882311F084E469
:1005B00001C080E0DF91CF911F910F9108950F93BB
:1005C0001F93CF93DF9300D000D0CDB7DEB7698300
:1005D0007A838B839C838091370190913801A0911D
:1005E0003901B0913A019C01AD0169817A818B8119
:1005F0009C810E949911882309F477C020E030E0A3
:10060000A90169817A818B819C810E94991188233B
:1006100051F481E990E021E930E0F901208128706E
:10062000FC01208309C081E990E021E930E0F90173
:1006300020812360FC01208328E539E344E75FE360
:1006400069817A818B819C810E949911882344F46D
:1006500088E990E02FEF3FEFFC013183208334C025
:1006600020E034E244EF56E469817A818B819C81F9
:100670000E94BB12181634F488E990E0FC01118244
:10068000108222C008E910E020E030E040E053E4AE
:1006900069817A818B819C810E94C012DC01CB012F
:1006A0009C01AD0160E074E284EF9AE40E949E1127
:1006B000DC01CB01BC01CD010E941012DC01CB0199
:1006C0000197F8019183808384E990E0FC01118215
:1006D000108289819A81AB81BC818093370190938C
:1006E0003801A0933901B0933A0100000F900F90A8
:1006F0000F900F90DF91CF911F910F910895CF939D
:10070000DF93CDB7DEB780E990E020E4FC012083E1
:1007100081E990E02BE0FC01208360E070E0CB01F8
:100720000E94DF020000DF91CF910895CF93DF9305
:10073000CDB7DEB780E990E0FC01108281E990E05E
:10074000FC0110820000DF91CF910895CF93DF93D9
:10075000CDB7DEB78AE790E02AE730E0F9012081E3
:10076000206EFC0120830000DF91CF910895CF938C
:10077000DF9300D0CDB7DEB788E790E0FC01808141
:1007800091819A83898389819A818D3D910520F495
:1007900087E08093110127C089819A818B3791402E
:1007A00020F48EE0809311011EC089819A818931E5
:1007B000924020F48CE18093110115C089819A81C7
:1007C000873B924020F488E3809311010CC089811B
:1007D0009A818535934020F480E78093110103C00E
:1007E00080EE8093110100000F900F90DF91CF9168
:1007F0000895CF93DF93CDB7DEB780913201882380
:1008000019F48CE1809311018CE180930A0110921C
:100810000B0110920C0188E080930D0110920E01E3
:1008200010920F01109210018CE291E0A0E0B0E074
:100830008093040190930501A0930601B0930701F2
:1008400088E08093080183E0809309011092A10160
:100850001092A00180913301833020F48091340103
:10086000833020F010923301109234010000DF91A8
:10087000CF910895CF93DF93CDB7DEB710920B01E0
:1008800010920C0110920D0110920E0110920F01A6
:10089000109210010000DF91CF910895CF93DF9364
:1008A000CDB7DEB78091040190910501A0910601BA
:1008B000B0910701883C9105A105B10598F08091A0
:1008C000040190910501A0910601B0910701C29722
:1008D000A109B1098093040190930501A093060139
:1008E000B09307010000DF91CF910895CF93DF937C
:1008F000CDB7DEB78091040190910501A09106016A
:10090000B09107018F359140A105B10598F4809110
:10091000040190910501A0910601B0910701C296D2
:10092000A11DB11D8093040190930501A0930601C0
:10093000B09307010000DF91CF9108950F931F93AB
:10094000CF93DF93CDB7DEB780913301882F90E04E
:100950008230910591F083309105E1F0019739F5EE
:1009600005E210E085E290E0FC01808141E062E078
:100970000E94A401F80180833FC005E210E085E2F7
:1009800090E0FC01808141E063E00E94A401F80155
:10099000808332C005E210E085E290E0FC018081B6
:1009A00041E064E00E94A401F801808325C005E2D3
:1009B00010E085E290E0FC01808140E062E00E946E
:1009C000A401F801808305E210E085E290E0FC01DB
:1009D000808140E063E00E94A401F801808305E289
:1009E00010E085E290E0FC01808140E064E00E943C
:1009F000A401F8018083000080913401882F90E0E9
:100A00008230910591F083309105E1F0019739F53D
:100A100002E210E082E290E0FC01808141E064E0CB
:100A20000E94A401F80180833FC002E210E082E24C
:100A300090E0FC01808141E065E00E94A401F801A2
:100A4000808332C002E210E082E290E0FC0180810B
:100A500041E066E00E94A401F801808325C002E223
:100A600010E082E290E0FC01808140E064E00E94BE
:100A7000A401F801808302E210E082E290E0FC0130
:100A8000808140E065E00E94A401F801808302E2D9
:100A900010E082E290E0FC01808140E066E00E948C
:100AA000A401F801808300000000DF91CF911F9125
:100AB0000F910895CF93DF9300D0CDB7DEB78FEFBE
:100AC0009FEF9A83898380910901882F90E081307C
:100AD000910521F0069709F415C122C280910A01FF
:100AE000882F90E08C31910509F493C08D319105E8
:100AF00044F48730910509F4DCC00E9709F4B1C0C5
:100B000000C18037910579F1803E910521F0C897A9
:100B100009F451C0F6C080910801882F90E080341C
:100B2000910569F08038910519F0809779F015C02A
:100B300086E090E09A8389830E944E0413C082E08D
:100B400090E09A8389830E9476040CC086E090E04E
:100B50009A8389830E944E0405C087E090E09A83BF
:100B600089830000CEC080910801882F90E08032F8
:100B7000910569F08034910519F0409779F015C01E
:100B800085E090E09A8389830E944E0413C082E03E
:100B900090E09A8389830E9476040CC086E090E0FE
:100BA0009A8389830E944E0405C087E090E09A836F
:100BB00089830000A6C064EA70ED82E893E40E9495
:100BC000DF0280910801882F90E08031910569F063
:100BD0008032910519F0089779F015C085E090E012
:100BE0009A8389830E944E0413C082E090E09A8326
:100BF00089830E9476040CC086E090E09A83898302
:100C00000E944E0405C087E090E09A83898300002B
:100C100078C080910801882F90E08830910569F0B4
:100C20008031910519F0049779F015C085E090E0C6
:100C30009A8389830E944E0413C082E090E09A83D5
:100C400089830E9476040CC086E090E09A838983B1
:100C50000E944E0405C087E090E09A8389830000DB
:100C600050C080910801882F90E08430910569F090
:100C70008830910519F0029779F015C085E090E071
:100C80009A8389830E944E0413C082E090E09A8385
:100C900089830E9476040CC086E090E09A83898361
:100CA0000E944E0405C087E090E09A83898300008B
:100CB00028C080910801882F90E08230910569F06A
:100CC0008430910519F0019779F015C085E090E026
:100CD0009A8389830E944E0413C082E090E09A8335
:100CE00089830E9476040CC085E090E09A83898312
:100CF0000E944E0405C087E090E09A83898300003B
:100D000000000EC180911101882F90E08C31910577
:100D100009F48DC08D31910544F48730910509F4B3
:100D2000D6C00E9709F4ABC0FAC08037910579F1AF
:100D3000803E910521F0C89709F451C0F0C0809120
:100D40000801882F90E08034910569F08038910582
:100D500019F0809779F015C084E090E09A83898338
:100D60000E944E0413C081E090E09A8389830E9420
:100D700076040CC084E090E09A8389830E944E043C
:100D800005C088E090E09A8389830000C8C0809104
:100D90000801882F90E08032910569F08034910538
:100DA00019F0409779F015C083E090E09A83898329
:100DB0000E944E0413C081E090E09A8389830E94D0
:100DC00076040CC084E090E09A8389830E944E04EC
:100DD00005C088E090E09A8389830000A0C08091DC
:100DE0000801882F90E08031910569F080329105EB
:100DF00019F0089779F015C083E090E09A83898311
:100E00000E944E0413C081E090E09A8389830E947F
:100E100076040CC084E090E09A8389830E944E049B
:100E200005C088E090E09A838983000078C08091B3
:100E30000801882F90E08830910569F08031910594
:100E400019F0049779F015C083E090E09A838983C4
:100E50000E944E0413C081E090E09A8389830E942F
:100E600076040CC084E090E09A8389830E944E044B
:100E700005C088E090E09A838983000050C080918B
:100E80000801882F90E08430910569F08830910541
:100E900019F0029779F015C083E090E09A83898376
:100EA0000E944E0413C081E090E09A8389830E94DF
:100EB00076040CC084E090E09A8389830E944E04FB
:100EC00005C088E090E09A838983000028C0809163
:100ED0000801882F90E08230910569F084309105F7
:100EE00019F0019779F015C083E090E09A83898327
:100EF0000E944E0413C081E090E09A8389830E948F
:100F000076040CC083E090E09A8389830E944E04AB
:100F100005C088E090E09A8389830000000000000B
:100F200089819A810F900F90DF91CF910895CF938F
:100F3000DF9300D01F92CDB7DEB79B838A8380E218
:100F400090E0FC0180818095847089838A819B81F7
:100F5000009719F00197B9F021C08981882381F0A9
:100F600081E090E09B838A8380913101809580931A
:100F70003101809131018823A1F40E94F90311C04D
:100F80001B821A820EC08981882329F081E090E0BB
:100F90009B838A8307C01B821A8204C01B821A8229
:100FA00001C000008A819B810F900F900F90DF910C
:100FB000CF910895CF93DF9300D000D0CDB7DEB7A7
:100FC0009C838B8380E290E0FC0180818095807817
:100FD000898380E290E0FC018081809582708A8321
:100FE0008B819C818130910551F182309105A9F16D
:100FF000892B09F040C090910A0180EE981769F0A2
:101000008981882351F080910A01880F80930A0119
:1010100081E090E09C838B8331C090910A0187E04E
:10102000981761F18A81882349F180910A01869598
:1010300080930A0182E090E09C838B831FC08981AA
:10104000882329F081E090E09C838B8319C08981FB
:101050008823B1F41C821B8213C08A81882329F063
:1010600082E090E09C838B830DC08A81882351F4B9
:101070001C821B8207C01C821B8205C0000003C0AB
:10108000000001C000008B819C810F900F900F9099
:101090000F90DF91CF910895CF93DF9300D01F92EF
:1010A000CDB7DEB79B838A8380E290E0FC0180812C
:1010B0008095887089838A819B81009719F00197B8
:1010C00089F01BC08981882351F08091320180957D
:1010D0008093320181E090E09B838A8311C01B8260
:1010E0001A820EC08981882329F081E090E09B83D9
:1010F0008A8306C01B821A8203C01B821A820000E8
:101100008A819B810F900F900F90DF91CF9108956E
:10111000CF93DF9300D0CDB7DEB79A8389838981DF
:101120009A81009719F0019769F020C080913201EF
:10113000882319F41A8219821CC081E090E09A83F6
:10114000898317C080913201882369F08091A001C2
:101150009091A101089739F00E94B70381E090E0D7
:101160009A83898306C01A82198203C01A8219825F
:10117000000089819A810F900F90DF91CF9108959F
:101180000F931F93CF93DF9300D0CDB7DEB79A8331
:10119000898389819A81892BB1F5809132018823D5
:1011A000C9F005E210E085E290E0FC01808141E0B9
:1011B00060E00E94A401F801808305E210E085E26E
:1011C00090E0FC01808141E061E00E94A401F8010F
:1011D00080831CC005E210E085E290E0FC01808184
:1011E00041E060E00E94A401F801808305E210E084
:1011F00085E290E0FC01808140E061E00E94A40172
:10120000F801808303C01A821982000089819A81C3
:101210000F900F90DF91CF911F910F910895CF9371
:10122000DF9300D0CDB7DEB79A83898389819A8115
:10123000009719F0019769F140C08091A001909149
:10124000A101079771F480913401833050F48091AB
:1012500034018F5F8093340181E090E09A83898329
:1012600017C08091A0019091A101089771F480911D
:101270003301833050F4809133018F5F80933301C9
:1012800081E090E09A83898303C01A82198218C092
:1012900017C08091A0019091A101079731F0809132
:1012A000A0019091A101089729F481E090E09A8330
:1012B000898306C01A82198203C01A82198200002B
:1012C00089819A81009731F0019709F004C00E944A
:1012D0009E0401C0000089819A810F900F90DF91D8
:1012E000CF910895CF93DF9300D01F92CDB7DEB793
:1012F0009B838A830E9478132AE030E0B9010E9420
:10130000461189838A819B81092E000CAA0BBB0B95
:1013100040E050E028E030E0841B950B28173907A7
:1013200008F4FBC08A5B9F4FFC010C947C118091F8
:101330003101882319F41B821A82F2C08981853019
:1013400028F081E090E09B838A83EAC08981853020
:1013500008F0E6C082E090E09B838A83E1C0809140
:101360003101882329F40E94F9031B821A82D9C013
:1013700080910901813029F40E945A059B838A8358
:10138000D0C081E090E09B838A83CBC08091310103
:10139000882329F40E94F9031B821A82C2C080911B
:1013A0000901863029F40E945A059B838A83B9C0BB
:1013B00082E090E09B838A83B4C0809131018823CE
:1013C00029F40E94F9031B821A82ABC080910801A4
:1013D000803849F480910901863029F086E090E058
:1013E0009B838A839EC080910901863029F40E94E4
:1013F0005A059B838A8395C085E090E09B838A830E
:1014000090C080913101882329F40E94F9031B8246
:101410001A8287C080910801813049F480910901C6
:10142000863029F085E090E09B838A837AC08091A2
:101430000901863029F40E945A059B838A8371C072
:1014400086E090E09B838A836CC080913101882381
:1014500029F40E94F9031B821A8263C0809108015B
:10146000803849F480910901813029F084E090E0CE
:101470009B838A8356C080910901813029F40E94A0
:101480005A059B838A834DC083E090E09B838A83C7
:1014900048C080913101882329F40E94F9031B82FE
:1014A0001A823FC080910801813049F4809109017E
:1014B000813029F083E090E09B838A8332C0809161
:1014C0000901813029F40E945A059B838A8329C02F
:1014D00084E090E09B838A8324C08091310188233B
:1014E00029F487E090E09B838A831BC00E94F90364
:1014F000109231011B821A8214C08091310188231D
:1015000029F488E090E09B838A830BC00E94F90352
:10151000109231011B821A8204C01B821A8201C000
:1015200000008A819B81092E000CAA0BBB0B40E0B6
:1015300050E028E030E0841B950B2817390708F4A9
:10154000F4C0815B9F4FFC010C947C111092A101AF
:101550001092A0010E949E04E9C081E090E0909367
:10156000A1018093A00180910901882F90E0865FFE
:101570009E4FFC01108280910901815080930901E6
:1015800080910901882F90E020910801865F9E4F8D
:10159000FC012083CBC082E090E09093A101809376
:1015A000A00180910901882F90E0865F9E4FFC0189
:1015B0001082809109018F5F809309018091090158
:1015C000882F90E020910801865F9E4FFC012083C8
:1015D000ADC085E090E09093A1018093A00180913F
:1015E0000901882F90E0865F9E4FFC011082809158
:1015F0000801880F80930801809109018F5F809313
:10160000090180910901882F90E020910801865FEF
:101610009E4FFC0120838AC086E090E09093A10158
:101620008093A00180910901882F90E0865F9E4FF2
:10163000FC011082809108018695809308018091B9
:1016400009018F5F8093090180910901882F90E043
:1016500020910801865F9E4FFC01208367C083E0D4
:1016600090E09093A1018093A00180910901882FBF
:1016700090E0865F9E4FFC01108280910801880FE8
:101680008093080180910901815080930901809124
:101690000901882F90E020910801865F9E4FFC0190
:1016A000208344C084E090E09093A1018093A00146
:1016B00080910901882F90E0865F9E4FFC01108287
:1016C00080910801869580930801809109018150DD
:1016D0008093090180910901882F90E020910801F1
:1016E000865F9E4FFC01208321C087E090E09093AD
:1016F000A1018093A001109231010E949E040E94DA
:101700003A048FEF80930A0111C088E090E0909333
:10171000A1018093A001109231010E949E040E94B9
:101720003A048FEF8093110101C000008A819B81F0
:101730000F900F900F90DF91CF910895CF93DF938B
:1017400000D01F92CDB7DEB79B838A830E947813A7
:101750002AE030E0B9010E94461189838A819B8189
:101760008130910569F18230910569F1892B71F51C
:101770008981823078F08091A0019091A101059734
:1017800049F480913201882329F481E090E09B8321
:101790008A8315C08981823078F08091A001909170
:1017A000A101069749F480913201882329F482E04F
:1017B00090E09B838A8303C01B821A820AC009C0FF
:1017C0001B821A8206C01B821A8203C01B821A82E5
:1017D00000008A819B818130910531F08230910532
:1017E00069F0892BA9F019C080911101803E91F018
:1017F00080911101880F809311010CC0809111011B
:10180000873051F08091110186958093110104C0B9
:10181000000003C0000001C000008A819B810F907E
:101820000F900F90DF91CF910895CF93DF9300D069
:10183000CDB7DEB79A83898389819A81892B19F084
:101840001A82198201C0000089819A81892B09F0CE
:101850003BC090913B0188E0981761F188E290E0ED
:1018600020913C012095FC0120838BE290E02091A7
:101870001201FC01208380913B01873031F480917B
:101880003B018F5F80933B010FC080913B018F5FD5
:1018900080933B0180913B01882F90E0865F9E4FB3
:1018A000FC01808180933C0180911201880F80931C
:1018B000120109C010923B0180910A0180933C0102
:1018C00081E080931201000089819A810F900F902E
:1018D000DF91CF9108950F931F93CF93DF93CDB7EF
:1018E000DEB76D970FB6F894DEBF0FBECDBF81E2B5
:1018F00090E020E7FC01208382E290E02FE8FC01E9
:10190000208384E290E02FEFFC01208385E290E0C9
:10191000FC01108287E290E02FEFFC01208388E237
:1019200090E0FC0110828AE290E02FEFFC0120831E
:101930008BE290E0FC01108282E1EAE1F1E0DE015D
:101940001C9601900D928A95E1F789E090E09887C6
:101950008F838FEF89871B861A868A859B85880FE0
:10196000991F9E012F5F3F4F820F931F0B96FC0123
:10197000808191812985FC0120838A859B85880F40
:10198000991F9E012F5F3F4F820F931F0B96FC0103
:10199000208131818AE090E0A0E0B0E0F90181830C
:1019A0009283A383B4838A859B85880F991F9E01A8
:1019B0002F5F3F4F820F931F0B96FC0120813181D7
:1019C0008A859B85880F991FAE014F5F5F4F840FFB
:1019D000951F0B96FC0180819181FC018181928190
:1019E000A381B481F90185839683A783B0878A8513
:1019F0009B85880F991F9E012F5F3F4F820F931F7A
:101A00000B96FC01808191812AED37E0FC01328741
:101A100021878A859B8501969B878A878A859B85F6
:101A2000880F991F9E012F5F3F4F820F931F0B96C8
:101A3000FC01808191812985FC0120838A859B8519
:101A4000880F991F9E012F5F3F4F820F931F0B96A8
:101A5000FC01208131818AE090E0A0E0B0E0F90152
:101A600081839283A383B4838A859B85880F991F82
:101A70009E012F5F3F4F820F931F0B96FC01208129
:101A800031818A859B85880F991FAE014F5F5F4F1B
:101A9000840F951F0B96FC0180819181FC0181814F
:101AA0009281A381B481F90185839683A783B0874E
:101AB0008A859B85880F991F9E012F5F3F4F820F5C
:101AC000931F0B96FC018081918128E838E0FC018E
:101AD000328721878A859B8501969B878A878A859D
:101AE0009B85880F991F9E012F5F3F4F820F931F89
:101AF0000B96FC01808191812985FC0120838A85D8
:101B00009B85880F991F9E012F5F3F4F820F931F68
:101B10000B96FC01208131818AE090E0A0E0B0E0EA
:101B2000F90181839283A383B4838A859B85880F7F
:101B3000991F9E012F5F3F4F820F931F0B96FC0151
:101B4000208131818A859B85880F991FAE014F5F67
:101B50005F4F840F951F0B96FC0180819181FC01E2
:101B600081819281A381B481F90185839683A783C2
:101B7000B0878A859B85880F991F9E012F5F3F4FF5
:101B8000820F931F0B96FC01808191812CE438E039
:101B9000FC01328721878A859B8501969B878A87EE
:101BA0008A859B85880F991F9E012F5F3F4F820F6B
:101BB000931F0B96FC01808191812985FC01208374
:101BC0008A859B85880F991F9E012F5F3F4F820F4B
:101BD000931F0B96FC01208131818AE090E0A0E008
:101BE000B0E0F90181839283A383B4838A859B85C6
:101BF000880F991F9E012F5F3F4F820F931F0B96F7
:101C0000FC01208131818A859B85880F991FAE0157
:101C10004F5F5F4F840F951F0B96FC018081918170
:101C2000FC0181819281A381B481F901858396832E
:101C3000A783B0878A859B85880F991F9E012F5F98
:101C40003F4F820F931F0B96FC018081918120EC06
:101C500038E0FC01328721878A859B8501969B8726
:101C60008A878A859B85880F991F9E012F5F3F4F2A
:101C7000820F931F0B96FC01808191812985FC01C5
:101C800020838A859B85880F991F9E012F5F3F4F78
:101C9000820F931F0B96FC012081318180910401FA
:101CA00090910501A0910601B0910701F90181838E
:101CB0009283A383B4838A859B85880F991F9E0195
:101CC0002F5F3F4F820F931F0B96FC0120813181C4
:101CD0008A859B85880F991FAE014F5F5F4F840FE8
:101CE000951F0B96FC0180819181FC01818192817D
:101CF000A381B481F90185839683A783B0878A8500
:101D00009B85880F991F9E012F5F3F4F820F931F66
:101D10000B96FC018081918122E739E0FC0132873A
:101D200021878A859B8501969B878A878A859B85E3
:101D3000880F991F9E012F5F3F4F820F931F0B96B5
:101D4000FC01808191812985FC0120838A859B8506
:101D5000880F991F9E012F5F3F4F820F931F0B9695
:101D6000FC012081318188EC90E0A0E0B0E0F90135
:101D700081839283A383B4838A859B85880F991F6F
:101D80009E012F5F3F4F820F931F0B96FC01208116
:101D900031818A859B85880F991FAE014F5F5F4F08
:101DA000840F951F0B96FC0180819181FC0181813C
:101DB0009281A381B481F90185839683A783B0873B
:101DC0008A859B85880F991F9E012F5F3F4F820F49
:101DD000931F0B96FC01808191812EE93BE0FC0171
:101DE000328721878A859B8501969B878A878A858A
:101DF0009B85880F991F9E012F5F3F4F820F931F76
:101E00000B96FC01808191812985FC0120838A85C4
:101E10009B85880F991F9E012F5F3F4F820F931F55
:101E20000B96FC012081318181E090E0A0E0B0E0E0
:101E3000F90181839283A383B4838A859B85880F6C
:101E4000991F9E012F5F3F4F820F931F0B96FC013E
:101E5000208131818A859B85880F991FAE014F5F54
:101E60005F4F840F951F0B96FC0180819181FC01CF
:101E700081819281A381B481F90185839683A783AF
:101E8000B0878A859B85880F991F9E012F5F3F4FE2
:101E9000820F931F0B96FC018081918125E13CE02C
:101EA000FC01328721878A859B8501969B878A87DB
:101EB0008A859B85880F991F9E012F5F3F4F820F58
:101EC000931F0B96FC01808191812985FC01208361
:101ED0008A859B85880F991F9E012F5F3F4F820F38
:101EE000931F0B96FC012081318184E190E0A0E0FA
:101EF000B0E0F90181839283A383B4838A859B85B3
:101F0000880F991F9E012F5F3F4F820F931F0B96E3
:101F1000FC01208131818A859B85880F991FAE0144
:101F20004F5F5F4F840F951F0B96FC01808191815D
:101F3000FC0181819281A381B481F901858396831B
:101F4000A783B0878A859B85880F991F9E012F5F85
:101F50003F4F820F931F0B96FC018081918127E9EF
:101F600037E0FC01328721878A859B8501969B8714
:101F70008A878A859B85880F991F9E012F5F3F4F17
:101F8000820F931F0B96FC01808191812985FC01B2
:101F900020838A859B85880F991F9E012F5F3F4F65
:101FA000820F931F0B96FC01208131818AE090E023
:101FB000A0E0B0E0F90181839283A383B4838A8592
:101FC0009B85880F991F9E012F5F3F4F820F931FA4
:101FD0000B96FC01208131818A859B85880F991F92
:101FE000AE014F5F5F4F840F951F0B96FC01808100
:101FF0009181FC0181819281A381B481F901858362
:102000009683A783B0878A859B85880F991F9E0139
:102010002F5F3F4F820F931F0B96FC0180819181B0
:102020002FE039E0FC01328721878A859B85019664
:102030009B878A871A8219828C859D85FC01818104
:102040009281A381B4818B839C83AD83BE8381E025
:1020500090E09A83898325C089819A81880F991F8E
:102060009E012F5F3F4F820F931F0B96FC018081D3
:102070009181FC0121813281438154818B819C813A
:10208000AD81BE81BC01CD010E945701DC01CB01B5
:102090008B839C83AD83BE8389819A8101969A83C9
:1020A000898329813A818F81988528173907A0F281
:1020B0008B819C81AD81BE81BC01CD010E947900E4
:1020C0000E94A7000E947F030E94A6031A82198221
:1020D000CDC089819A81880F991F9E012F5F3F4F44
:1020E000820F931F0B96FC0180819181FC018185F9
:1020F000928582579940D1F489819A81880F991FDE
:102100009E012F5F3F4F820F931F0B96FC01208192
:1021100031818091040190910501A0910601B09157
:102120000701F90181839283A383B48389819A8112
:10213000880F991F9E012F5F3F4F820F931F0B96B1
:10214000FC0180819181FC01258136814781508588
:1021500089819A81880F991FBE016F5F7F4F860F1B
:10216000971F0B96FC0180819181FC0181819281F6
:10217000A381B481281739074A075B0708F445C0D3
:1021800089819A81880F991F9E012F5F3F4F820F8F
:10219000931F0B96FC010081118189819A81880F20
:1021A000991F9E012F5F3F4F820F931F0B96FC01DB
:1021B00080819181FC012185328589819A81880FF6
:1021C000991FAE014F5F5F4F840F951F0B96FC0167
:1021D00080819181FC018081082E000C990BF9010E
:1021E0000995F801808389819A81880F991F9E0142
:1021F0002F5F3F4F820F931F0B96FC0180819181CF
:10220000FC01158216821782108689819A81880FB7
:10221000991F9E012F5F3F4F820F931F0B96FC016A
:102220006081718189819A81880F991F9E012F5F3A
:102230003F4F820F931F0B96FC0180819181FC011F
:1022400025813681478150858B819C81AD81BE81FE
:10225000820F931FA41FB51FFB0185839683A7835D
:10226000B08789819A8101969A83898329813A81ED
:102270008F8198852817390708F42BCF00008091AB
:102280002C018823E1F310922C0120CF97FB072E1D
:1022900016F4009407D077FD09D00E94851107FC41
:1022A00005D03EF4909581959F4F08957095619566
:1022B0007F4F0895A1E21A2EAA1BBB1BFD010DC082
:1022C000AA1FBB1FEE1FFF1FA217B307E407F507E6
:1022D00020F0A21BB30BE40BF50B661F771F881FC2
:1022E000991F1A9469F760957095809590959B0158
:1022F000AC01BD01CF010895EE0FFF1F0024001CAB
:102300000BBE0790F691E02D0994AA1BBB1B51E16F
:1023100007C0AA1FBB1FA617B70710F0A61BB70B55
:10232000881F991F5A95A9F780959095BC01CD01FA
:1023300008950E94461208F481E008950E94B211A7
:102340000C9481120E947A1258F00E94731240F08D
:1023500029F45F3F29F00C946A1251110C94B512C4
:102360000C9470120E94921268F39923B1F35523D2
:1023700091F3951B550BBB27AA2762177307840798
:1023800038F09F5F5F4F220F331F441FAA1FA9F32E
:1023900035D00E2E3AF0E0E832D091505040E6951C
:1023A000001CCAF72BD0FE2F29D0660F771F881F7D
:1023B000BB1F261737074807AB07B0E809F0BB0B70
:1023C000802DBF01FF2793585F4F3AF09E3F510584
:1023D00078F00C946A120C94B5125F3FE4F3983EC7
:1023E000D4F3869577956795B795F7959F5FC9F76D
:1023F000880F911D9695879597F90895E1E0660FEE
:10240000771F881FBB1F621773078407BA0720F066
:10241000621B730B840BBA0BEE1F88F7E0950895CF
:102420000E9417126894B1110C94B51208950E947D
:102430009A1288F09F5798F0B92F9927B751B0F0AA
:10244000E1F0660F771F881F991F1AF0BA95C9F738
:1024500014C0B13091F00E94B412B1E008950C9410
:10246000B412672F782F8827B85F39F0B93FCCF3C3
:10247000869577956795B395D9F73EF490958095B5
:10248000709561957F4F8F4F9F4F0895990F00086A
:10249000550FAA0BE0E8FEEF16161706E807F90736
:1024A000C0F012161306E407F50798F0621B730BD1
:1024B000840B950B39F40A2661F0232B242B252B52
:1024C00021F408950A2609F4A140A6958FEF811DF5
:1024D000811D089597F99F6780E870E060E0089596
:1024E0009FEF80EC089500240A941616170618062C
:1024F0000906089500240A94121613061406050608
:102500000895092E0394000C11F4882352F0BB0F98
:1025100040F4BF2B11F460FF04C06F5F7F4F8F4FFB
:102520009F4F089557FD9058440F551F59F05F3F36
:1025300071F04795880F97FB991F61F09F3F79F0E5
:1025400087950895121613061406551FF2CF469567
:10255000F1DF08C0161617061806991FF1CF8695E9
:102560007105610508940895E894BB2766277727CD
:10257000CB0197F908950E94461208F48FEF089551
:102580000E94D3120C9481120E94731238F00E94A0
:102590007A1220F0952311F00C946A120C947012A8
:1025A00011240C94B5120E94921270F3959FC1F3FE
:1025B000950F50E0551F629FF001729FBB27F00DF1
:1025C000B11D639FAA27F00DB11DAA1F649F662746
:1025D000B00DA11D661F829F2227B00DA11D621F95
:1025E000739FB00DA11D621F839FA00D611D221F4F
:1025F000749F3327A00D611D231F849F600D211D33
:10260000822F762F6A2F11249F5750409AF0F1F0B5
:1026100088234AF0EE0FFF1FBB1F661F771F881F1E
:1026200091505040A9F79E3F510580F00C946A12DA
:102630000C94B5125F3FE4F3983ED4F386957795FA
:102640006795B795F795E7959F5FC1F7FE2B880FC4
:10265000911D9695879597F908958F929F92AF92C5
:10266000BF92CF92DF92EF92FF92CF93DF93EC0174
:10267000688179818A819B81611571058105910548
:1026800021F464E279ED8BE597E02DE133EF41E051
:1026900050E00E94871349015A019B01AC01A7EA4F
:1026A000B1E40E94A6136B017C01ACEEB4EFA5016E
:1026B00094010E94B413DC01CB018C0D9D1DAE1D55
:1026C000BF1DB7FF03C00197A109B0488883998354
:1026D000AA83BB839F77DF91CF91FF90EF90DF902C
:1026E000CF90BF90AF909F908F9008950C942D1332
:1026F00083E191E00C942D13A0E0B0E080931301EE
:1027000090931401A0931501B09316010895052E1E
:1027100097FB1EF400940E949E1357FD07D00E9461
:102720005A1107FC03D04EF40C949E13509540951B
:10273000309521953F4F4F4F5F4F0895909580956D
:10274000709561957F4F8F4F9F4F08950E94B913E9
:10275000A59F900DB49F900DA49F800D911D1124F5
:102760000895B7FF0C94A6130E94A613821B930B27
:102770000895A29FB001B39FC001A39F700D811D5A
:102780001124911DB29F700D811D1124911D08957A
:04279000F894FFCFEB
:10279400010000002C01000008031C0000080000D8
:1027A400001C010100000008E00795018A017F0177
:0C27B400740169015E01530148013D0100
:00000001FF
