:100000000C9446000C9465000C9465000C946500FB
:100010000C9465000C9465000C9465000C946500CC
:100020000C9465000C9465000C9465000C946500BC
:100030000C9465000C94E3000C9465000C9465002E
:100040000C9465000C9465000C9465000C9465009C
:100050000C9465000C9465000C9465000C9465008C
:100060000C9465000C9465000C9465000C9465007C
:100070000C9465000C9465000C9465000C9465006C
:100080000C9465000C9465000C94650011241FBE4F
:10009000CFEFD0E4DEBFCDBF11E0A0E0B1E0ECE2F5
:1000A000F0E100E00BBF02C007900D92A631B1074E
:1000B000D9F721E0A6E1B1E001C01D92A334B20757
:1000C000E1F70E94B2040C9414080C940000CF9342
:1000D000DF9300D000D0CDB7DEB769837A838B83FE
:1000E0009C8389819A81AB81BC818093000190932C
:1000F0000101A0930201B09303018091000190914E
:100100000101A0910201B091030180931701909326
:100110001801A0931901B0931A0100000F900F90DD
:100120000F900F90DF91CF910895CF93DF93CDB7CC
:10013000DEB781E890E02BE0FC01208388E890E0C6
:100140002DE730E0FC01318320838FE690E022E050
:10015000FC01208384E890E0FC01118210828091F0
:10016000000190910101A0910201B09103018093DF
:10017000170190931801A0931901B0931A018FE50C
:1001800090E02FE530E0F90120812068FC01208318
:100190000000DF91CF910895CF93DF93CDB7DEB705
:1001A00081E890E0FC0110820000DF91CF9108957A
:1001B000CF93DF93CDB7DEB781E0809316010000C7
:1001C000DF91CF9108951F920F9200905F000F92E0
:1001D000112400905B000F922F933F934F935F93F6
:1001E0006F937F938F939F93AF93BF93EF93FF93FF
:1001F000CF93DF93CDB7DEB78091170190911801AF
:10020000A0911901B0911A010197A109B109809338
:10021000170190931801A0931901B0931A018091CE
:10022000170190911801A0911901B0911A01892B21
:100230008A2B8B2B91F40E94D80080910001909121
:100240000101A0910201B0910301809317019093E5
:100250001801A0931901B0931A010000DF91CF910A
:10026000FF91EF91BF91AF919F918F917F916F918E
:100270005F914F913F912F910F9000925B000F90F3
:1002800000925F000F901F901895CF93DF93CDB72A
:10029000DEB72C970FB6F894DEBF0FBECDBF6D83CF
:1002A0007E838F83988729873A874B875C878D81E8
:1002B0009E81AF81B88529853A854B855C85BC01D7
:1002C000CD010E945E06DC01CB0189839A83AB835A
:1002D000BC8389819A81AB81BC81892B8A2B8B2B32
:1002E00029F489859A85AB85BC8511C089859A8555
:1002F000AB85BC858D839E83AF83B88789819A81C6
:10030000AB81BC8189879A87AB87BC87D0CFBC0182
:10031000CD012C960FB6F894DEBF0FBECDBFDF9196
:10032000CF910895CF93DF9300D01F92CDB7DEB762
:1003300089836A834B838B81882371F08A81282F7C
:1003400030E081E090E002C0880F991F2A95E2F723
:10035000982F8981892B0EC08A81282F30E081E077
:1003600090E002C0880F991F2A95E2F7982F909588
:10037000898189230F900F900F90DF91CF9108957D
:10038000CF93DF9300D0CDB7DEB789836A838A81AC
:10039000282F30E081E090E002C0880F991F2A9555
:1003A000E2F7982F898189230F900F90DF91CF91E9
:1003B00008950F931F93CF93DF93CDB7DEB708E275
:1003C00010E040E064E08FEF0E949201F80180832A
:1003D000000086E290E0FC018081809560E00E9450
:1003E000C001882311F081E3D3C086E290E0FC01D4
:1003F0008081809561E00E94C001882311F084E330
:10040000C7C086E290E0FC018081809562E00E9496
:10041000C001882311F087E3BBC086E290E0FC01B5
:100420008081809563E00E94C001882311F08AE2F8
:10043000AFC008E210E040E065E08FEF0E9492015B
:10044000F8018083000086E290E0FC0180818095C5
:1004500060E00E94C001882311F082E399C086E227
:1004600090E0FC018081809561E00E94C0018823BA
:1004700011F085E38DC086E290E0FC0180818095DB
:1004800062E00E94C001882311F088E381C086E207
:1004900090E0FC018081809563E00E94C001882388
:1004A00011F080E375C008E210E040E066E08FEFF5
:1004B0000E949201F8018083000086E290E0FC0136
:1004C0008081809560E00E94C001882311F083E361
:1004D0005FC086E290E0FC018081809561E00E942F
:1004E000C001882311F086E353C086E290E0FC014E
:1004F0008081809562E00E94C001882311F089E329
:1005000047C086E290E0FC018081809563E00E9414
:10051000C001882311F083E23BC008E210E040E014
:1005200067E08FEF0E949201F8018083000086E26D
:1005300090E0FC018081809560E00E94C0018823EA
:1005400011F081E425C086E290E0FC018081809575
:1005500061E00E94C001882311F082E419C086E2A4
:1005600090E0FC018081809562E00E94C0018823B8
:1005700011F083E40DC086E290E0FC01808180955B
:1005800063E00E94C001882311F084E401C080E090
:10059000DF91CF911F910F9108950F931F93CF93E8
:1005A000DF9300D000D0CDB7DEB769837A838B8329
:1005B0009C8380911C0190911D01A0911E01B0911E
:1005C0001F019C01AD0169817A818B819C810E9410
:1005D0008006882309F477C020E030E0A901698112
:1005E0007A818B819C810E948006882351F481E965
:1005F00090E021E930E0F90120812870FC0120839E
:1006000009C081E990E021E930E0F901208123600F
:10061000FC01208328E539E344E75FE369817A81BF
:100620008B819C810E948006882344F488E990E0B5
:100630002FEF3FEFFC013183208334C020E034E210
:1006400044EF56E469817A818B819C810E94A207E4
:10065000181634F488E990E0FC011182108222C05F
:1006600008E910E020E030E040E053E469817A815D
:100670008B819C810E94A707DC01CB019C01AD010D
:1006800060E074E284EF9AE40E948506DC01CB010D
:10069000BC01CD010E94F706DC01CB010197F801F6
:1006A0009183808384E990E0FC011182108289812A
:1006B0009A81AB81BC8180931C0190931D01A09312
:1006C0001E01B0931F0100000F900F900F900F902C
:1006D000DF91CF911F910F910895CF93DF93CDB705
:1006E000DEB780E990E020E4FC01208381E990E01E
:1006F0002BE0FC01208360E070E0CB010E94CD0282
:100700000000DF91CF910895CF93DF93CDB7DEB78F
:1007100080E990E0FC01108281E990E0FC01108208
:100720000000DF91CF910895CF93DF9300D01F9207
:10073000CDB7DEB79B838A8380E290E0FC018081A5
:100740008095847089838A819B81009719F0019735
:1007500089F01BC08981882351F081E090E09B8360
:100760008A8380911B01809580931B0111C01B829D
:100770001A820EC08981882329F081E090E09B8352
:100780008A8306C01B821A8203C01B821A82000061
:1007900080911B01882339F064EA70ED82E893E4CC
:1007A0000E94CD0209C080911B01882329F460E0DA
:1007B00070E0CB010E94CD028A819B810F900F9047
:1007C0000F90DF91CF910895CF93DF9300D000D0A9
:1007D000CDB7DEB79C838B8380E290E0FC01808103
:1007E000882F90E08170992721E0892B09F020E083
:1007F000298380E290E0FC018081809582708A8369
:100800008B819C818130910551F182309105A9F154
:10081000892B09F040C09091040180EE981769F08F
:100820008981882351F080910401880F809304010D
:1008300081E090E09C838B8331C09091040187E03C
:10084000981761F18A81882349F180910401869586
:100850008093040182E090E09C838B831FC0898198
:10086000882329F081E090E09C838B8319C08981E3
:100870008823B1F41C821B8213C08A81882329F04B
:1008800082E090E09C838B830DC08A81882351F4A1
:100890001C821B8207C01C821B8205C0000003C093
:1008A000000001C000008B819C810F900F900F9081
:1008B0000F90DF91CF910895CF93DF9300D0CDB704
:1008C000DEB79A83898389819A81892B19F01A82EC
:1008D000198201C0000089819A81892B09F03BC0EF
:1008E0009091200188E0981761F188E290E02091D2
:1008F00021012095FC0120838BE290E020910C01E6
:10090000FC01208380912001873031F48091200107
:100910008F5F809320010FC0809120018F5F8093B3
:10092000200180912001882F90E08C5F9E4FFC0178
:1009300080818093210180910C01880F80930C01AC
:1009400009C010922001809104018093210181E06F
:1009500080930C01000089819A810F900F90DF91A4
:10096000CF9108950F931F93CF93DF93CDB7DEB749
:100970002F970FB6F894DEBF0FBECDBF81E290E097
:10098000FC01108282E290E02FEFFC01208384E2E0
:1009900090E020E4FC01208385E290E02FEBFC0155
:1009A000208387E290E02FEFFC01208388E290E033
:1009B000FC0110828AE290E02FEFFC0120838BE2A1
:1009C00090E0FC01108286E0E0E1F1E0DE011A96A1
:1009D00001900D928A95E1F783E090E098878F83EC
:1009E0008FEF89878985809322018AE090E0A0E0DB
:1009F000B0E08093230190932401A0932501B0934C
:100A000026018091230190912401A0912501B091AC
:100A100026018093270190932801A0932901B09388
:100A20002A0184EE93E090932C0180932B01898519
:100A300080932D0181E090E0A0E0B0E080932E0152
:100A400090932F01A0933001B093310180912E013A
:100A500090912F01A0913001B0913101809332012A
:100A600090933301A0933401B09335018CE594E069
:100A7000909337018093360189858093380184E112
:100A800090E0A0E0B0E08093390190933A01A09308
:100A90003B01B0933C018091390190913A01A091C2
:100AA0003B01B0913C0180933D0190933E01A093A6
:100AB0003F01B093400184E993E090934201809319
:100AC00041011A8219828A859B85FC01818192816C
:100AD000A381B4818B839C83AD83BE8381E090E04E
:100AE0009A83898325C089819A81880F991F9E01E5
:100AF0002F5F3F4F820F931F0996FC0180819181E8
:100B0000FC0121813281438154818B819C81AD81A3
:100B1000BE81BC01CD010E944501DC01CB018B836C
:100B20009C83AD83BE8389819A8101969A83898350
:100B300029813A818F81988528173907A0F28B8106
:100B40009C81AD81BE81BC01CD010E9467000E94E5
:100B500095000E946D031A821982A0C089819A8132
:100B6000880F991F9E012F5F3F4F820F931F099699
:100B7000FC0180819181FC0125813681478150856E
:100B800089819A81880F991FBE016F5F7F4F860F01
:100B9000971F0996FC0180819181FC0181819281DE
:100BA000A381B481281739074A075B0708F445C0B9
:100BB00089819A81880F991F9E012F5F3F4F820F75
:100BC000931F0996FC010081118189819A81880F08
:100BD000991F9E012F5F3F4F820F931F0996FC01C3
:100BE00080819181FC012185328589819A81880FDC
:100BF000991FAE014F5F5F4F840F951F0996FC014F
:100C000080819181FC018081082E000C990BF901F3
:100C10000995F801808389819A81880F991F9E0127
:100C20002F5F3F4F820F931F0996FC0180819181B6
:100C3000FC01158216821782108689819A81880F9D
:100C4000991F9E012F5F3F4F820F931F0996FC0152
:100C50006081718189819A81880F991F9E012F5F20
:100C60003F4F820F931F0996FC0180819181FC0107
:100C700025813681478150858B819C81AD81BE81E4
:100C8000820F931FA41FB51FFB0185839683A78343
:100C9000B08789819A8101969A83898329813A81D3
:100CA0008F8198852817390708F458CF0000809164
:100CB00016018823E1F3109216014DCFA1E21A2EFE
:100CC000AA1BBB1BFD010DC0AA1FBB1FEE1FFF1FF0
:100CD000A217B307E407F50720F0A21BB30BE40B40
:100CE000F50B661F771F881F991F1A9469F7609587
:100CF0007095809590959B01AC01BD01CF01089541
:100D00000E942D0708F481E008950E9499060C9432
:100D100068070E94610758F00E945A0740F029F4C2
:100D20005F3F29F00C94510751110C949C070C94CF
:100D300057070E94790768F39923B1F3552391F37C
:100D4000951B550BBB27AA2762177307840738F03A
:100D50009F5F5F4F220F331F441FAA1FA9F335D097
:100D60000E2E3AF0E0E832D091505040E695001C4B
:100D7000CAF72BD0FE2F29D0660F771F881FBB1F05
:100D8000261737074807AB07B0E809F0BB0B802DE3
:100D9000BF01FF2793585F4F3AF09E3F510578F00F
:100DA0000C9451070C949C075F3FE4F3983ED4F3F6
:100DB000869577956795B795F7959F5FC9F7880FE3
:100DC000911D9695879597F90895E1E0660F771F35
:100DD000881FBB1F621773078407BA0720F0621BC6
:100DE000730B840BBA0BEE1F88F7E09508950E94F1
:100DF000FE066894B1110C949C0708950E94810727
:100E000088F09F5798F0B92F9927B751B0F0E1F0CB
:100E1000660F771F881F991F1AF0BA95C9F714C07B
:100E2000B13091F00E949B07B1E008950C949B07AC
:100E3000672F782F8827B85F39F0B93FCCF38695B4
:100E400077956795B395D9F73EF490958095709511
:100E500061957F4F8F4F9F4F0895990F0008550F51
:100E6000AA0BE0E8FEEF16161706E807F907C0F030
:100E700012161306E407F50798F0621B730B840B38
:100E8000950B39F40A2661F0232B242B252B21F412
:100E900008950A2609F4A140A6958FEF811D811DB2
:100EA000089597F99F6780E870E060E008959FEFEC
:100EB00080EC089500240A941616170618060906F1
:100EC000089500240A9412161306140605060895C0
:100ED000092E0394000C11F4882352F0BB0F40F448
:100EE000BF2B11F460FF04C06F5F7F4F8F4F9F4F88
:100EF000089557FD9058440F551F59F05F3F71F00A
:100F00004795880F97FB991F61F09F3F79F0879570
:100F10000895121613061406551FF2CF4695F1DFF9
:100F200008C0161617061806991FF1CF8695710589
:100F3000610508940895E894BB2766277727CB01BD
:100F400097F908950E942D0708F48FEF08950E94E5
:100F5000BA070C9468070E945A0738F00E9461078C
:100F600020F0952311F00C9451070C94570711248D
:100F70000C949C070E94790770F3959FC1F3950F1D
:100F800050E0551F629FF001729FBB27F00DB11D0D
:100F9000639FAA27F00DB11DAA1F649F6627B00D9D
:100FA000A11D661F829F2227B00DA11D621F739F86
:100FB000B00DA11D621F839FA00D611D221F749F94
:100FC0003327A00D611D231F849F600D211D822FDB
:100FD000762F6A2F11249F5750409AF0F1F0882302
:100FE0004AF0EE0FFF1FBB1F661F771F881F91502F
:100FF0005040A9F79E3F510580F00C9451070C9486
:101000009C075F3FE4F3983ED4F386957795679508
:10101000B795F795E7959F5FC1F7FE2B880F911D58
:0C1020009695879597F90895F894FFCFF6
:10102C00010000001C24240042423C1C0108E00783
:06103C0022012D01380124
:00000001FF
