:100000000C9469000C9488000C9488000C9488006F
:100010000C9488000C9488000C9488000C94880040
:100020000C9488000C9488000C9488000C94880030
:100030000C9488000C9406010C9488000C948800A1
:100040000C9488000C9488000C9488000C94880010
:100050000C9488000C9488000C9488000C94880000
:100060000C9488000C9488000C9488000C948800F0
:100070000C9488000C9488000C9488000C948800E0
:100080000C9488000C9488000C948800D303D90346
:10009000DF03E503EB03F103F703FD0303040904A6
:1000A0000F0415041B04210427042D043204C30784
:1000B000DB07F2075108750809082D089908A908F7
:1000C000B809D208F008540977090E0931099A09CC
:1000D000A80911241FBECFEFD0E4DEBFCDBF11E0D1
:1000E000A0E0B1E0ECE1F1E200E00BBF02C007905C
:1000F0000D92A232B107D9F721E0A2E2B1E001C02E
:100100001D92A237B207E1F70E94860A0C948C1068
:100110000C940000CF93DF9300D000D0CDB7DEB7B2
:1001200069837A838B839C8389819A81AB81BC812B
:100130008093000190930101A0930201B093030109
:100140008091000190910101A0910201B091030101
:100150008093230190932401A0932501B09326015D
:1001600000000F900F900F900F90DF91CF910895A6
:10017000CF93DF93CDB7DEB781E890E02BE0FC01B1
:10018000208388E890E02DE730E0FC013183208374
:100190008FE690E022E0FC01208384E890E0FC01FF
:1001A000118210828091000190910101A0910201C1
:1001B000B09103018093230190932401A093250122
:1001C000B09326018FE590E02FE530E0F901208122
:1001D0002068FC0120830000DF91CF910895CF9328
:1001E000DF93CDB7DEB781E890E0FC01108200001C
:1001F000DF91CF910895CF93DF93CDB7DEB781E044
:10020000809322010000DF91CF9108951F920F92F9
:1002100000905F000F92112400905B000F922F93CB
:100220003F934F935F936F937F938F939F93AF937E
:10023000BF93EF93FF93CF93DF93CDB7DEB780915A
:10024000230190912401A0912501B09126010197ED
:10025000A109B1098093230190932401A093250162
:10026000B09326018091230190912401A091250152
:10027000B0912601892B8A2B8B2B91F40E94FB00D5
:100280008091000190910101A0910201B0910301C0
:100290008093230190932401A0932501B09326011C
:1002A0000000DF91CF91FF91EF91BF91AF919F91AE
:1002B0008F917F916F915F914F913F912F910F900F
:1002C00000925B000F9000925F000F901F901895B6
:1002D000CF93DF93CDB7DEB72C970FB6F894DEBF80
:1002E0000FBECDBF6D837E838F83988729873A8722
:1002F0004B875C878D819E81AF81B88529853A8542
:100300004B855C85BC01CD010E941E0EDC01CB013A
:1003100089839A83AB83BC8389819A81AB81BC81B9
:10032000892B8A2B8B2B29F489859A85AB85BC85F3
:1003300011C089859A85AB85BC858D839E83AF83EB
:10034000B88789819A81AB81BC8189879A87AB877D
:10035000BC87D0CFBC01CD012C960FB6F894DEBF80
:100360000FBECDBFDF91CF910895CF93DF9300D023
:100370001F92CDB7DEB789836A834B838B81882335
:1003800071F08A81282F30E081E090E002C0880F70
:10039000991F2A95E2F7982F8981892B0EC08A81AF
:1003A000282F30E081E090E002C0880F991F2A9545
:1003B000E2F7982F9095898189230F900F900F90E5
:1003C000DF91CF910895CF93DF9300D0CDB7DEB703
:1003D00089836A838A81282F30E081E090E002C01F
:1003E000880F991F2A95E2F7982F898189230F900A
:1003F0000F90DF91CF9108950F931F93CF93DF93C9
:10040000CDB7DEB708E210E040E064E08FEF0E9475
:10041000B501F8018083000086E290E0FC01808154
:10042000809560E00E94E301882311F081E3D3C04E
:1004300086E290E0FC018081809561E00E94E3010A
:10044000882311F084E3C7C086E290E0FC0180813C
:10045000809562E00E94E301882311F087E3BBC02E
:1004600086E290E0FC018081809563E00E94E301D8
:10047000882311F08AE2AFC008E210E040E065E0B6
:100480008FEF0E94B501F8018083000086E290E0C2
:10049000FC018081809560E00E94E301882311F0D7
:1004A00082E399C086E290E0FC018081809561E062
:1004B0000E94E301882311F085E38DC086E290E07D
:1004C000FC018081809562E00E94E301882311F0A5
:1004D00088E381C086E290E0FC018081809563E042
:1004E0000E94E301882311F080E375C008E210E068
:1004F00040E066E08FEF0E94B501F80180830000C4
:1005000086E290E0FC018081809560E00E94E3013A
:10051000882311F083E35FC086E290E0FC018081D4
:10052000809561E00E94E301882311F086E353C0C7
:1005300086E290E0FC018081809562E00E94E30108
:10054000882311F089E347C086E290E0FC018081B6
:10055000809563E00E94E301882311F083E23BC0B1
:1005600008E210E040E067E08FEF0E94B501F8017B
:100570008083000086E290E0FC018081809560E04D
:100580000E94E301882311F081E425C086E290E017
:10059000FC018081809561E00E94E301882311F0D5
:1005A00082E419C086E290E0FC018081809562E0DF
:1005B0000E94E301882311F083E40DC086E290E0FD
:1005C000FC018081809563E00E94E301882311F0A3
:1005D00084E401C080E0DF91CF911F910F910895D5
:1005E0000F931F93CF93DF9300D000D0CDB7DEB72A
:1005F00069837A838B839C83809128019091290160
:10060000A0912A01B0912B019C01AD0169817A81F1
:100610008B819C810E945D0E882309F477C020E0C5
:1006200030E0A90169817A818B819C810E945D0EF5
:10063000882351F481E990E021E930E0F90120813B
:100640002870FC01208309C081E990E021E930E0B5
:10065000F90120812360FC01208328E539E344E788
:100660005FE369817A818B819C810E945D0E882382
:1006700044F488E990E02FEF3FEFFC0131832083C1
:1006800034C020E034E244EF56E469817A818B8102
:100690009C810E947F0F181634F488E990E0FC01D9
:1006A0001182108222C008E910E020E030E040E032
:1006B00053E469817A818B819C810E94840FDC01E3
:1006C000CB019C01AD0160E074E284EF9AE40E94EA
:1006D000620EDC01CB01BC01CD010E94D40EDC0115
:1006E000CB010197F8019183808384E990E0FC01BC
:1006F0001182108289819A81AB81BC81809328010B
:1007000090932901A0932A01B0932B0100000F9030
:100710000F900F900F90DF91CF911F910F9108953F
:10072000CF93DF93CDB7DEB780E990E020E4FC0102
:10073000208381E990E02BE0FC01208360E070E001
:10074000CB010E94F0020000DF91CF910895CF937A
:10075000DF93CDB7DEB780E990E0FC01108281E93C
:1007600090E0FC0110820000DF91CF910895CF93BB
:10077000DF931F92CDB7DEB789838981882F90E000
:10078000092E000CAA0BBB0B40E050E020E130E04A
:10079000841B950B2817390708F46AC08A5B9F4FA2
:1007A000FC010C94400E85E290E02FE1FC012083D7
:1007B00065C085E290E021E0FC0120835FC085E216
:1007C00090E022E0FC01208359C085E290E023E024
:1007D000FC01208353C085E290E024E0FC012083EB
:1007E0004DC085E290E025E0FC01208347C085E212
:1007F00090E026E0FC01208341C085E290E027E004
:10080000FC0120833BC085E290E028E0FC012083CE
:1008100035C085E290E029E0FC0120832FC085E20D
:1008200090E02AE0FC01208329C085E290E02BE0E3
:10083000FC01208323C085E290E02CE0FC012083B2
:100840001DC085E290E02DE0FC01208317C085E209
:1008500090E02EE0FC01208311C085E290E0FC01D5
:1008600010820CC085E290E02FE0FC01208306C0DE
:1008700085E290E02BE1FC012083000000000F9056
:10088000DF91CF910895CF93DF93CDB7DEB78CE1A1
:1008900080930601109207011092080188E080936E
:1008A000090110920A0110920B0110920C018CE1C7
:1008B00080930D0188E08093040183E0809305011B
:1008C00010927101109270010000DF91CF91089594
:1008D000CF93DF93CDB7DEB71092070110920801D6
:1008E0001092090110920A0110920B0110920C0152
:1008F0000000DF91CF910895CF93DF9300D0CDB763
:10090000DEB78FEF9FEF9A83898380910501882F4F
:1009100090E08130910521F0069709F4F1C0DAC129
:1009200080910601882F90E08C31910509F481C0F7
:100930008D31910544F48730910509F4BEC00E97BE
:1009400009F499C0DCC08037910549F1803E9105DA
:1009500021F0C89709F445C0D2C080910401882FC6
:1009600090E08034910559F08038910519F0809716
:1009700059F00FC086E090E09A8389830FC082E02F
:1009800090E09A8389830AC086E090E09A83898305
:1009900005C087E090E09A8389830000B0C0809111
:1009A0000401882F90E08032910559F08034910540
:1009B00019F0409759F00FC085E090E09A83898341
:1009C0000FC082E090E09A8389830AC086E090E0BD
:1009D0009A83898305C087E090E09A838983000029
:1009E0008EC064EA70ED82E893E40E94F002809188
:1009F0000401882F90E08031910559F080329105F3
:100A000019F0089759F00FC085E090E09A83898328
:100A10000FC082E090E09A8389830AC086E090E06C
:100A20009A83898305C087E090E09A8389830000D8
:100A300066C080910401882F90E08830910559F0BC
:100A40008031910519F0049759F00FC085E090E0CE
:100A50009A8389830FC082E090E09A8389830AC0D9
:100A600086E090E09A83898305C087E090E09A83CE
:100A70008983000044C080910401882F90E0843075
:100A8000910559F08830910519F0029759F00FC07F
:100A900085E090E09A8389830FC082E090E09A839A
:100AA00089830AC086E090E09A83898305C087E045
:100AB00090E09A838983000022C080910401882FEE
:100AC00090E08230910559F08430910519F001973A
:100AD00059F00FC085E090E09A8389830FC082E0CF
:100AE00090E09A8389830AC085E090E09A838983A5
:100AF00005C087E090E09A83898300000000EAC087
:100B000080910D01882F90E08C31910509F47BC014
:100B10008D31910544F48730910509F4B8C00E97E2
:100B200009F493C0D6C08037910549F1803E910504
:100B300021F0C89709F445C0CCC080910401882FEA
:100B400090E08034910559F08038910519F0809734
:100B500059F00FC084E090E09A8389830FC081E050
:100B600090E09A8389830AC084E090E09A83898325
:100B700005C088E090E09A8389830000AAC0809134
:100B80000401882F90E08032910559F0803491055E
:100B900019F0409759F00FC083E090E09A83898361
:100BA0000FC081E090E09A8389830AC084E090E0DE
:100BB0009A83898305C088E090E09A838983000046
:100BC00088C080910401882F90E08031910559F010
:100BD0008032910519F0089759F00FC083E090E03A
:100BE0009A8389830FC081E090E09A8389830AC049
:100BF00084E090E09A83898305C088E090E09A833E
:100C00008983000066C080910401882F90E08830BD
:100C1000910559F08031910519F0049759F00FC0F2
:100C200083E090E09A8389830FC081E090E09A830B
:100C300089830AC084E090E09A83898305C088E0B4
:100C400090E09A838983000044C080910401882F3A
:100C500090E08430910559F08830910519F00297A1
:100C600059F00FC083E090E09A8389830FC081E040
:100C700090E09A8389830AC084E090E09A83898314
:100C800005C088E090E09A838983000022C08091AB
:100C90000401882F90E08230910559F0843091054D
:100CA00019F0019759F00FC083E090E09A8389838F
:100CB0000FC081E090E09A8389830AC083E090E0CE
:100CC0009A83898305C088E090E09A838983000035
:100CD0000000000089819A810F900F90DF91CF91E1
:100CE0000895CF93DF9300D01F92CDB7DEB79B83DB
:100CF0008A8380E290E0FC01808180958470898302
:100D00008A819B81009719F00197B9F021C08981F0
:100D1000882381F081E090E09B838A838091270182
:100D2000809580932701809127018823A1F40E9458
:100D3000430411C01B821A820EC08981882329F0C6
:100D400081E090E09B838A8307C01B821A8204C0E3
:100D50001B821A8201C000008A819B810F900F9034
:100D60000F90DF91CF910895CF93DF9300D000D003
:100D7000CDB7DEB79C838B8380E290E0FC0180815D
:100D8000882F90E08170992721E0892B09F020E0DD
:100D9000298380E290E0FC018081809582708A83C3
:100DA0008B819C818130910551F182309105A9F1AF
:100DB000892B09F040C09091060180EE981769F0E8
:100DC0008981882351F080910601880F8093060164
:100DD00081E090E09C838B8331C09091060187E095
:100DE000981761F18A81882349F1809106018695DF
:100DF0008093060182E090E09C838B831FC08981F1
:100E0000882329F081E090E09C838B8319C089813D
:100E10008823B1F41C821B8213C08A81882329F0A5
:100E200082E090E09C838B830DC08A81882351F4FB
:100E30001C821B8207C01C821B8205C0000003C0ED
:100E4000000001C000008B819C810F900F900F90DB
:100E50000F90DF91CF910895CF93DF9300D000D012
:100E6000CDB7DEB79C838B8380E290E0FC0180816C
:100E700080958870898380E290E0FC018081809574
:100E800080718A838B819C818130910551F1823000
:100E90009105A9F1892B09F040C090910D0180EED8
:100EA000981769F08981882351F080910D01880F8E
:100EB00080930D0181E090E09C838B8331C0909101
:100EC0000D0187E0981761F18A81882349F18091AB
:100ED0000D01869580930D0182E090E09C838B83C9
:100EE0001FC08981882329F081E090E09C838B8357
:100EF00019C089818823B1F41C821B8213C08A81A6
:100F0000882329F082E090E09C838B830DC08A8146
:100F1000882351F41C821B8207C01C821B8205C0DF
:100F2000000003C0000001C000008B819C810F9075
:100F30000F900F900F90DF91CF910895CF93DF9393
:100F400000D01F92CDB7DEB79B838A830E943C10EE
:100F50002AE030E0B9010E940A0E89838A819B81D0
:100F6000092E000CAA0BBB0B40E050E028E030E05B
:100F7000841B950B2817390708F4FBC0895A9F4F2B
:100F8000FC010C94400E80912701882319F41B82E8
:100F90001A82F2C08981853028F081E090E09B833D
:100FA0008A83EAC08981853008F0E6C082E090E05B
:100FB0009B838A83E1C080912701882329F40E94C2
:100FC00043041B821A82D9C080910501813029F423
:100FD0000E947C049B838A83D0C081E090E09B8345
:100FE0008A83CBC080912701882329F40E9443047F
:100FF0001B821A82C2C080910501863029F40E94AA
:101000007C049B838A83B9C082E090E09B838A83BF
:10101000B4C080912701882329F40E9443041B82D5
:101020001A82ABC080910401803849F48091050197
:10103000863029F086E090E09B838A839EC0809171
:101040000501863029F40E947C049B838A8395C025
:1010500085E090E09B838A8390C08091270188235C
:1010600029F40E9443041B821A8287C080910401E4
:10107000813049F480910501863029F085E090E0C7
:101080009B838A837AC080910501863029F40E946F
:101090007C049B838A8371C086E090E09B838A8373
:1010A0006CC080912701882329F40E9443041B828D
:1010B0001A8263C080910401803849F4809105014F
:1010C000813029F084E090E09B838A8356C0809130
:1010D0000501813029F40E947C049B838A834DC0E2
:1010E00083E090E09B838A8348C080912701882316
:1010F00029F40E9443041B821A823FC0809104019C
:10110000813049F480910501813029F083E090E03D
:101110009B838A8332C080910501813029F40E942B
:101120007C049B838A8329C084E090E09B838A832C
:1011300024C080912701882329F487E090E09B83D5
:101140008A831BC00E944304109227011B821A82CB
:1011500014C080912701882329F488E090E09B83C4
:101160008A830BC00E944304109227011B821A82BB
:1011700004C01B821A8201C000008A819B81092E53
:10118000000CAA0BBB0B40E050E028E030E0841BD1
:10119000950B2817390708F4E9C0805A9F4FFC01C6
:1011A0000C94400E81E090E0909371018093700167
:1011B00080910501882F90E08A5F9E4FFC0110828C
:1011C0008091050181508093050180910501882F50
:1011D00090E0209104018A5F9E4FFC012083C9C0EA
:1011E00082E090E0909371018093700180910501FD
:1011F000882F90E08A5F9E4FFC011082809105014C
:101200008F5F8093050180910501882F90E02091E8
:1012100004018A5F9E4FFC012083ABC085E090E013
:10122000909371018093700180910501882F90E067
:101230008A5F9E4FFC01108280910401880F809389
:101240000401809105018F5F809305018091050164
:10125000882F90E0209104018A5F9E4FFC0120833B
:1012600088C086E090E09093710180937001809136
:101270000501882F90E08A5F9E4FFC0110828091CB
:101280000401869580930401809105018F5F80930E
:10129000050180910501882F90E0209104018A5F6B
:1012A0009E4FFC01208365C083E090E09093710124
:1012B0008093700180910501882F90E08A5F9E4F96
:1012C000FC01108280910401880F809304018091B9
:1012D000050181508093050180910501882F90E0E0
:1012E000209104018A5F9E4FFC01208342C084E06C
:1012F00090E0909371018093700180910501882F97
:1013000090E08A5F9E4FFC011082809104018695D7
:1013100080930401809105018150809305018091A3
:101320000501882F90E0209104018A5F9E4FFC0107
:1013300020831FC087E090E090937101809370013B
:101340000E9468048FEF809306011092270111C05C
:1013500088E090E090937101809370010E9468048E
:101360008FEF80930D011092270103C0000001C090
:1013700000008A819B810F900F900F90DF91CF9199
:101380000895CF93DF9300D01F92CDB7DEB79B8334
:101390008A830E943C102AE030E0B9010E940A0EC4
:1013A00089838A819B818130910529F18230910561
:1013B00029F1892B31F58981853058F080917001B0
:1013C00090917101059729F481E090E09B838A83D5
:1013D00011C08981853058F0809170019091710120
:1013E000069729F482E090E09B838A8303C01B82E6
:1013F0001A820AC009C01B821A8206C01B821A8286
:1014000003C01B821A8200008A819B818130910572
:1014100031F08230910569F0892BA9F019C08091D3
:101420000D01803E91F080910D01880F80930D0198
:101430000CC080910D01873051F080910D0186958F
:1014400080930D0104C0000003C0000001C0000033
:101450008A819B810F900F900F90DF91CF9108951B
:10146000CF93DF9300D0CDB7DEB79A83898389818C
:101470009A81892B19F01A82198201C00000898192
:101480009A81892B09F03BC090912C0188E0981734
:1014900061F188E290E020912D012095FC012083EC
:1014A0008BE290E020910E01FC01208380912C01C1
:1014B000873031F480912C018F5F80932C010FC015
:1014C00080912C018F5F80932C0180912C01882FBB
:1014D00090E08A5F9E4FFC01808180932D01809176
:1014E0000E01880F80930E0109C010922C0180918B
:1014F000060180932D0181E080930E010000898117
:101500009A810F900F90DF91CF9108950F931F93C1
:10151000CF93DF93CDB7DEB767970FB6F894DEBFF2
:101520000FBECDBF81E290E0FC01108282E290E02C
:101530002FEFFC01208384E290E02FEFFC01208359
:1015400085E290E0FC01108287E290E02FEFFC0141
:10155000208388E290E0FC0110828AE290E02FEF85
:10156000FC0120838BE290E0FC0110828CE0E6E13C
:10157000F1E0DE011C9601900D928A95E1F786E07C
:1015800090E098878F838FEF89871B861A868A85DC
:101590009B85880F991F9E012F5F3F4F820F931FDE
:1015A0000B96FC01808191812985FC0120838A852D
:1015B0009B85880F991F9E012F5F3F4F820F931FBE
:1015C0000B96FC01208131818AE090E0A0E0B0E040
:1015D000F90181839283A383B4838A859B85880FD5
:1015E000991F9E012F5F3F4F820F931F0B96FC01A7
:1015F000208131818A859B85880F991FAE014F5FBD
:101600005F4F840F951F0B96FC0180819181FC0137
:1016100081819281A381B481F90185839683A78317
:10162000B0878A859B85880F991F9E012F5F3F4F4A
:10163000820F931F0B96FC018081918124EB36E091
:10164000FC01328721878A859B8501969B878A8743
:101650008A859B85880F991F9E012F5F3F4F820FC0
:10166000931F0B96FC01808191812985FC012083C9
:101670008A859B85880F991F9E012F5F3F4F820FA0
:10168000931F0B96FC01208131818AE090E0A0E05D
:10169000B0E0F90181839283A383B4838A859B851B
:1016A000880F991F9E012F5F3F4F820F931F0B964C
:1016B000FC01208131818A859B85880F991FAE01AD
:1016C0004F5F5F4F840F951F0B96FC0180819181C6
:1016D000FC0181819281A381B481F9018583968384
:1016E000A783B0878A859B85880F991F9E012F5FEE
:1016F0003F4F820F931F0B96FC01808191812CE25A
:1017000037E0FC01328721878A859B8501969B877C
:101710008A878A859B85880F991F9E012F5F3F4F7F
:10172000820F931F0B96FC01808191812985FC011A
:1017300020838A859B85880F991F9E012F5F3F4FCD
:10174000820F931F0B96FC01208131818CE291E086
:10175000A0E0B0E0F90181839283A383B4838A85FA
:101760009B85880F991F9E012F5F3F4F820F931F0C
:101770000B96FC01208131818A859B85880F991FFA
:10178000AE014F5F5F4F840F951F0B96FC01808168
:101790009181FC0181819281A381B481F9018583CA
:1017A0009683A783B0878A859B85880F991F9E01A2
:1017B0002F5F3F4F820F931F0B96FC018081918119
:1017C0002EE937E0FC01328721878A859B850196C7
:1017D0009B878A878A859B85880F991F9E012F5F2B
:1017E0003F4F820F931F0B96FC01808191812985C9
:1017F000FC0120838A859B85880F991F9E012F5F9E
:101800003F4F820F931F0B96FC012081318188ECA2
:1018100090E0A0E0B0E0F90181839283A383B483D8
:101820008A859B85880F991F9E012F5F3F4F820FEE
:10183000931F0B96FC01208131818A859B85880F3F
:10184000991FAE014F5F5F4F840F951F0B96FC01F0
:1018500080819181FC0181819281A381B481F90110
:1018600085839683A783B0878A859B85880F991F78
:101870009E012F5F3F4F820F931F0B96FC018081CB
:10188000918121EC39E0FC01328721878A859B8593
:1018900001969B878A878A859B85880F991F9E0161
:1018A0002F5F3F4F820F931F0B96FC018081918128
:1018B0002985FC0120838A859B85880F991F9E01BD
:1018C0002F5F3F4F820F931F0B96FC0120813181C8
:1018D00081E090E0A0E0B0E0F90181839283A383EE
:1018E000B4838A859B85880F991F9E012F5F3F4F88
:1018F000820F931F0B96FC01208131818A859B8585
:10190000880F991FAE014F5F5F4F840F951F0B9695
:10191000FC0180819181FC0181819281A381B4814C
:10192000F90185839683A783B0878A859B85880F75
:10193000991F9E012F5F3F4F820F931F0B96FC0153
:101940008081918120E33AE0FC01328721878A85FA
:101950009B8501969B878A878A859B85880F991F1F
:101960009E012F5F3F4F820F931F0B96FC018081DA
:1019700091812985FC0120838A859B85880F991F89
:101980009E012F5F3F4F820F931F0B96FC0120811A
:10199000318184E190E0A0E0B0E0F901818392839D
:1019A000A383B4838A859B85880F991F9E012F5F2F
:1019B0003F4F820F931F0B96FC01208131818A8556
:1019C0009B85880F991FAE014F5F5F4F840F951F56
:1019D0000B96FC0180819181FC0181819281A38120
:1019E000B481F90185839683A783B0878A859B8517
:1019F000880F991F9E012F5F3F4F820F931F0B96F9
:101A0000FC018081918121E736E0FC01328721874A
:101A10008A859B8501969B878A871A8219828C8585
:101A20009D85FC0181819281A381B4818B839C83FC
:101A3000AD83BE8381E090E09A83898325C089814C
:101A40009A81880F991F9E012F5F3F4F820F931F2E
:101A50000B96FC0180819181FC01218132814381BF
:101A600054818B819C81AD81BE81BC01CD010E94DE
:101A70006801DC01CB018B839C83AD83BE838981AC
:101A80009A8101969A83898329813A818F819885E9
:101A900028173907A0F28B819C81AD81BE81BC01E2
:101AA000CD010E948A000E94B8000E9490031A8211
:101AB0001982A0C089819A81880F991F9E012F5F8A
:101AC0003F4F820F931F0B96FC0180819181FC0197
:101AD000258136814781508589819A81880F991F98
:101AE000BE016F5F7F4F860F971F0B96FC018081B1
:101AF0009181FC0181819281A381B48128173907EA
:101B00004A075B0708F445C089819A81880F991FAD
:101B10009E012F5F3F4F820F931F0B96FC010081A8
:101B2000118189819A81880F991F9E012F5F3F4FF4
:101B3000820F931F0B96FC0180819181FC0121850E
:101B4000328589819A81880F991FAE014F5F5F4F5F
:101B5000840F951F0B96FC0180819181FC0180818F
:101B6000082E000C990BF9010995F80180838981F1
:101B70009A81880F991F9E012F5F3F4F820F931FFD
:101B80000B96FC0180819181FC01158216821782DF
:101B9000108689819A81880F991F9E012F5F3F4F80
:101BA000820F931F0B96FC016081718189819A815C
:101BB000880F991F9E012F5F3F4F820F931F0B9637
:101BC000FC0180819181FC0125813681478150850E
:101BD0008B819C81AD81BE81820F931FA41FB51F95
:101BE000FB0185839683A783B08789819A810196BB
:101BF0009A83898329813A818F81988528173907AB
:101C000008F458CF0000809122018823E1F310925C
:101C100022014DCF97FB072E16F4009407D077FDD5
:101C200009D00E94490E07FC05D03EF4909581959D
:101C30009F4F0895709561957F4F0895A1E21A2EE8
:101C4000AA1BBB1BFD010DC0AA1FBB1FEE1FFF1F60
:101C5000A217B307E407F50720F0A21BB30BE40BB0
:101C6000F50B661F771F881F991F1A9469F76095F7
:101C70007095809590959B01AC01BD01CF010895B1
:101C8000EE0FFF1F0024001C0BBE0790F691E02D05
:101C90000994AA1BBB1B51E107C0AA1FBB1FA617B3
:101CA000B70710F0A61BB70B881F991F5A95A9F705
:101CB00080959095BC01CD0108950E940A0F08F40B
:101CC00081E008950E94760E0C94450F0E943E0F0D
:101CD00058F00E94370F40F029F45F3F29F00C9430
:101CE0002E0F51110C94790F0C94340F0E94560F43
:101CF00068F39923B1F3552391F3951B550BBB273B
:101D0000AA2762177307840738F09F5F5F4F220F7F
:101D1000331F441FAA1FA9F335D00E2E3AF0E0E876
:101D200032D091505040E695001CCAF72BD0FE2FC0
:101D300029D0660F771F881FBB1F26173707480754
:101D4000AB07B0E809F0BB0B802DBF01FF2793580C
:101D50005F4F3AF09E3F510578F00C942E0F0C9493
:101D6000790F5F3FE4F3983ED4F3869577956795B6
:101D7000B795F7959F5FC9F7880F911D9695879541
:101D800097F90895E1E0660F771F881FBB1F621760
:101D900073078407BA0720F0621B730B840BBA0B1E
:101DA000EE1F88F7E09508950E94DB0E6894B1114C
:101DB0000C94790F08950E945E0F88F09F5798F059
:101DC000B92F9927B751B0F0E1F0660F771F881F40
:101DD000991F1AF0BA95C9F714C0B13091F00E945A
:101DE000780FB1E008950C94780F672F782F88272B
:101DF000B85F39F0B93FCCF3869577956795B39581
:101E0000D9F73EF490958095709561957F4F8F4FEF
:101E10009F4F0895990F0008550FAA0BE0E8FEEFB9
:101E200016161706E807F907C0F012161306E4079E
:101E3000F50798F0621B730B840B950B39F40A2697
:101E400061F0232B242B252B21F408950A2609F475
:101E5000A140A6958FEF811D811D089597F99F6779
:101E600080E870E060E008959FEF80EC0895002422
:101E70000A941616170618060906089500240A94EF
:101E800012161306140605060895092E0394000C75
:101E900011F4882352F0BB0F40F4BF2B11F460FF04
:101EA00004C06F5F7F4F8F4F9F4F089557FD90582D
:101EB000440F551F59F05F3F71F04795880F97FB0E
:101EC000991F61F09F3F79F08795089512161306C8
:101ED0001406551FF2CF4695F1DF08C016161706F7
:101EE0001806991FF1CF869571056105089408952C
:101EF000E894BB2766277727CB0197F908950E94BE
:101F00000A0F08F48FEF08950E94970F0C94450F65
:101F10000E94370F38F00E943E0F20F0952311F0F9
:101F20000C942E0F0C94340F11240C94790F0E94F2
:101F3000560F70F3959FC1F3950F50E0551F629FA8
:101F4000F001729FBB27F00DB11D639FAA27F00D12
:101F5000B11DAA1F649F6627B00DA11D661F829F39
:101F60002227B00DA11D621F739FB00DA11D621F1E
:101F7000839FA00D611D221F749F3327A00D611D3B
:101F8000231F849F600D211D822F762F6A2F11241D
:101F90009F5750409AF0F1F088234AF0EE0FFF1F50
:101FA000BB1F661F771F881F91505040A9F79E3FA7
:101FB000510580F00C942E0F0C94790F5F3FE4F3E1
:101FC000983ED4F3869577956795B795F795E795FD
:101FD0009F5FC1F7FE2B880F911D9695879597F906
:101FE00008958F929F92AF92BF92CF92DF92EF921D
:101FF000FF92CF93DF93EC01688179818A819B8185
:10200000611571058105910521F464E279ED8BE597
:1020100097E02DE133EF41E050E00E944B10490181
:102020005A019B01AC01A7EAB1E40E946A106B015E
:102030007C01ACEEB4EFA50194010E947810DC01A4
:10204000CB018C0D9D1DAE1DBF1DB7FF03C00197B9
:10205000A109B04888839983AA83BB839F77DF91C6
:10206000CF91FF90EF90DF90CF90BF90AF909F9077
:102070008F9008950C94F10F8FE091E00C94F10F84
:10208000A0E0B0E080930F0190931001A0931101A4
:10209000B09312010895052E97FB1EF400940E9440
:1020A000621057FD07D00E941E0E07FC03D04EF4AD
:1020B0000C94621050954095309521953F4F4F4FAD
:1020C0005F4F089590958095709561957F4F8F4FE4
:1020D0009F4F08950E947D10A59F900DB49F900D75
:1020E000A49F800D911D11240895B7FF0C946A10D0
:1020F0000E946A10821B930B0895A29FB001B39FA8
:10210000C001A39F700D811D1124911DB29F700D00
:0C211000811D1124911D0895F894FFCF4B
:10211C000100000008031C0000080000001C010165
:10212C0000000008E00765015A014F014401390124
:02213C002E0172
:00000001FF
