:100000000C9457000C9476000C9476000C947600B7
:100010000C9476000C9476000C9476000C94760088
:100020000C9476000C9476000C9476000C94760078
:100030000C9476000C94F4000C9476000C947600EA
:100040000C9476000C9476000C9476000C94760058
:100050000C9476000C9476000C9476000C94760048
:100060000C9476000C9476000C9476000C94760038
:100070000C9476000C9476000C9476000C94760028
:100080000C9476000C9476000C947600FA0200032F
:1000900006030C03120318031E0324032A03300370
:1000A00036033C03420348034E035403590311240F
:1000B0001FBECFEFD0E4DEBFCDBF11E0A0E0B1E0C6
:1000C000EEEBFBE000E00BBF02C007900D92A03109
:1000D000B107D9F721E0A0E1B1E001C01D92AD3236
:1000E000B207E1F70E9438040C94DD050C9400007F
:1000F000CF93DF9300D000D0CDB7DEB769837A838A
:100100008B839C8389819A81AB81BC818093000120
:1001100090930101A0930201B0930301809100012B
:1001200090910101A0910201B0910301809311010E
:1001300090931201A0931301B093140100000F904B
:100140000F900F900F90DF91CF910895CF93DF9391
:10015000CDB7DEB781E890E02BE0FC01208388E892
:1001600090E02DE730E0FC01318320838FE690E0C2
:1001700022E0FC01208384E890E0FC0111821082DF
:100180008091000190910101A0910201B0910301C1
:100190008093110190931201A0931301B093140165
:1001A0008FE590E02FE530E0F90120812068FC0127
:1001B00020830000DF91CF910895CF93DF93CDB7D7
:1001C000DEB781E890E0FC0110820000DF91CF9162
:1001D0000895CF93DF93CDB7DEB781E08093100110
:1001E0000000DF91CF9108951F920F9200905F0061
:1001F0000F92112400905B000F922F933F934F9327
:100200005F936F937F938F939F93AF93BF93EF937E
:10021000FF93CF93DF93CDB7DEB78091110190911B
:100220001201A0911301B09114010197A109B10924
:100230008093110190931201A0931301B0931401C4
:100240008091110190911201A0911301B0911401BC
:10025000892B8A2B8B2B91F40E94E900809100015D
:1002600090910101A0910201B091030180931101CD
:1002700090931201A0931301B09314010000DF9139
:10028000CF91FF91EF91BF91AF919F918F917F910E
:100290006F915F914F913F912F910F9000925B0072
:1002A0000F9000925F000F901F901895CF93DF93EF
:1002B000CDB7DEB72C970FB6F894DEBF0FBECDBF1B
:1002C0006D837E838F83988729873A874B875C87E6
:1002D0008D819E81AF81B88529853A854B855C8566
:1002E000BC01CD010E94B205DC01CB0189839A8358
:1002F000AB83BC8389819A81AB81BC81892B8A2B9A
:100300008B2B29F489859A85AB85BC8511C089859D
:100310009A85AB85BC858D839E83AF83B8878981A1
:100320009A81AB81BC8189879A87AB87BC87D0CF04
:10033000BC01CD012C960FB6F894DEBF0FBECDBF29
:10034000DF91CF910895CF93DF9300D01F92CDB767
:10035000DEB789836A834B838B81882371F08A811E
:10036000282F30E081E090E002C0880F991F2A9585
:10037000E2F7982F8981892B0EC08A81282F30E0DF
:1003800081E090E002C0880F991F2A95E2F7982F2C
:100390009095898189230F900F900F90DF91CF91D5
:1003A0000895CF93DF9300D0CDB7DEB789836A83FA
:1003B0008A81282F30E081E090E002C0880F991FE9
:1003C0002A95E2F7982F898189230F900F90DF916A
:1003D000CF9108950F931F93CF93DF93CDB7DEB7DF
:1003E00008E210E040E064E08FEF0E94A301F80112
:1003F0008083000086E290E0FC018081809560E0CF
:100400000E94D101882311F081E3D3C086E290E0FD
:10041000FC018081809561E00E94D101882311F068
:1004200084E3C7C086E290E0FC018081809562E0B1
:100430000E94D101882311F087E3BBC086E290E0DF
:10044000FC018081809563E00E94D101882311F036
:100450008AE2AFC008E210E040E065E08FEF0E9462
:10046000A301F8018083000086E290E0FC01808116
:10047000809560E00E94D101882311F082E399C049
:1004800086E290E0FC018081809561E00E94D101CC
:10049000882311F085E38DC086E290E0FC01808125
:1004A000809562E00E94D101882311F088E381C029
:1004B00086E290E0FC018081809563E00E94D1019A
:1004C000882311F080E375C008E210E040E066E0A8
:1004D0008FEF0E94A301F8018083000086E290E084
:1004E000FC018081809560E00E94D101882311F099
:1004F00083E35FC086E290E0FC018081809561E04B
:100500000E94D101882311F086E353C086E290E077
:10051000FC018081809562E00E94D101882311F066
:1005200089E347C086E290E0FC018081809563E02A
:100530000E94D101882311F083E23BC008E210E061
:1005400040E067E08FEF0E94A301F8018083000084
:1005500086E290E0FC018081809560E00E94D101FC
:10056000882311F081E425C086E290E0FC018081BF
:10057000809561E00E94D101882311F082E419C0C6
:1005800086E290E0FC018081809562E00E94D101CA
:10059000882311F083E40DC086E290E0FC018081A5
:1005A000809563E00E94D101882311F084E401C0AA
:1005B00080E0DF91CF911F910F910895CF93DF934A
:1005C0001F92CDB7DEB789838981882F90E0092EED
:1005D000000CAA0BBB0B40E050E020E130E0841B94
:1005E000950B2817390708F46AC08A5B9F4FFC01F6
:1005F0000C94D40585E290E02FE1FC01208365C0D6
:1006000085E290E021E0FC0120835FC085E290E07C
:1006100022E0FC01208359C085E290E023E0FC0148
:10062000208353C085E290E024E0FC0120834DC08C
:1006300085E290E025E0FC01208347C085E290E060
:1006400026E0FC01208341C085E290E027E0FC0128
:1006500020833BC085E290E028E0FC01208335C088
:1006600085E290E029E0FC0120832FC085E290E044
:100670002AE0FC01208329C085E290E02BE0FC0108
:10068000208323C085E290E02CE0FC0120831DC084
:1006900085E290E02DE0FC01208317C085E290E028
:1006A0002EE0FC01208311C085E290E0FC01108265
:1006B0000CC085E290E02FE0FC01208306C085E2BB
:1006C00090E02BE1FC012083000000000F90DF91FF
:1006D000CF910895CF93DF9300D000D0CDB7DEB790
:1006E0009C838B8380E290E0FC018081882F90E0E6
:1006F0008170992721E0892B09F020E0298380E28D
:1007000090E0FC018081809582708A838B819C813E
:100710008130910551F182309105A9F1892B09F0C1
:1007200040C09091040180EE981769F08981882378
:1007300051F080910401880F8093040181E090E0E2
:100740009C838B8331C09091040187E0981761F1FD
:100750008A81882349F18091040186958093040160
:1007600082E090E09C838B831FC08981882329F0DD
:1007700081E090E09C838B8319C089818823B1F448
:100780001C821B8213C08A81882329F082E090E0BA
:100790009C838B830DC08A81882351F41C821B8229
:1007A00007C01C821B8205C0000003C0000001C0FE
:1007B00000008B819C810F900F900F900F90DF9124
:1007C000CF910895CF93DF9300D0CDB7DEB79A8352
:1007D000898389819A81892B19F01A82198201C033
:1007E000000089819A81892B09F03BC09091150105
:1007F00088E0981761F188E290E020911601209539
:10080000FC0120838BE290E020910C01FC0120830D
:1008100080911501873031F4809115018F5F8093AD
:1008200015010FC0809115018F5F80931501809194
:100830001501882F90E08C5F9E4FFC018081809392
:10084000160180910C01880F80930C0109C0109251
:100850001501809104018093160181E080930C01C1
:10086000000089819A810F900F90DF91CF910895B8
:100870000F931F93CF93DF93CDB7DEB72D970FB6AE
:10088000F894DEBF0FBECDBF81E290E0FC01108284
:1008900082E290E02FEFFC01208387E290E02FEFCF
:1008A000FC01208388E290E0FC0110828AE290E063
:1008B0002FEFFC0120838BE290E0FC01108287E1A6
:1008C00091E09B878A8782E291E09D878C8782E016
:1008D00090E098878F838FEF8987898580931701B0
:1008E0008AE090E0A0E0B0E08093180190931901B5
:1008F000A0931A01B0931B018091180190911901E6
:10090000A0911A01B0911B0180931C0190931D01CD
:10091000A0931E01B0931F018AE693E090932101FA
:100920008093200189858093220181E090E0A0E0FE
:10093000B0E08093230190932401A0932501B0930C
:1009400026018091230190912401A0912501B0916D
:1009500026018093270190932801A0932901B09349
:100960002A0182EE93E090932C0180932B011A824E
:1009700019828A859B85FC0181819281A381B48142
:100980008B839C83AD83BE8381E090E09A838983CF
:1009900025C089819A81880F991F9E012F5F3F4F43
:1009A000820F931F0996FC0180819181FC012181B6
:1009B0003281438154818B819C81AD81BE81BC0198
:1009C000CD010E945601DC01CB018B839C83AD835A
:1009D000BE8389819A8101969A83898329813A818C
:1009E0008F81988528173907A0F28B819C81AD8172
:1009F000BE81BC01CD010E9478000E94A6001A822F
:100A00001982A0C089819A81880F991F9E012F5F4A
:100A10003F4F820F931F0996FC0180819181FC0159
:100A2000258136814781508589819A81880F991F58
:100A3000BE016F5F7F4F860F971F0996FC01808173
:100A40009181FC0181819281A381B48128173907AA
:100A50004A075B0708F445C089819A81880F991F6E
:100A60009E012F5F3F4F820F931F0996FC0100816B
:100A7000118189819A81880F991F9E012F5F3F4FB5
:100A8000820F931F0996FC0180819181FC012185D1
:100A9000328589819A81880F991FAE014F5F5F4F20
:100AA000840F951F0996FC0180819181FC01808152
:100AB000082E000C990BF9010995F80180838981B2
:100AC0009A81880F991F9E012F5F3F4F820F931FBE
:100AD0000996FC0180819181FC01158216821782A2
:100AE000108689819A81880F991F9E012F5F3F4F41
:100AF000820F931F0996FC016081718189819A811F
:100B0000880F991F9E012F5F3F4F820F931F0996F9
:100B1000FC0180819181FC012581368147815085CE
:100B20008B819C81AD81BE81820F931FA41FB51F55
:100B3000FB0185839683A783B08789819A8101967B
:100B40009A83898329813A818F819885281739076B
:100B500008F458CF0000809110018823E1F310922F
:100B600010014DCFA1E21A2EAA1BBB1BFD010DC027
:100B7000AA1FBB1FEE1FFF1FA217B307E407F5074D
:100B800020F0A21BB30BE40BF50B661F771F881F29
:100B9000991F1A9469F760957095809590959B01BF
:100BA000AC01BD01CF010895EE0FFF1F0024001C12
:0E0BB0000BBE0790F691E02D0994F894FFCF4C
:100BBE00010000001C24240042423C1C0108E007F6
:00000001FF
