:100000000C9458000C9477000C9477000C947700B3
:100010000C9477000C9477000C9477000C94770084
:100020000C9477000C9477000C9477000C94770074
:100030000C9477000C94F5000C9477000C947700E6
:100040000C9477000C9477000C9477000C94770054
:100050000C9477000C9477000C9477000C94770044
:100060000C9477000C9477000C9477000C94770034
:100070000C9477000C9477000C9477000C94770024
:100080000C9477000C9477000C94770074098C0919
:10009000A309020A260ABA09DE094A0A660A9B0A65
:1000A000A00ABE0A220B450BDC0AFF0A680B760B7E
:1000B00011241FBECFEFD0E4DEBFCDBF11E0A0E022
:1000C000B1E0ECE9F6E200E00BBF02C007900D9250
:1000D000AA32B107D9F721E0AAE2B1E001C01D922E
:1000E000A339B207E1F70E94520C0C944C130C9404
:1000F0000000CF93DF9300D000D0CDB7DEB7698387
:100100007A838B839C8389819A81AB81BC81809324
:10011000000190930101A0930201B093030180912B
:10012000000190910101A0910201B091030180931F
:100130002B0190932C01A0932D01B0932E01000070
:100140000F900F900F900F90DF91CF910895CF9364
:10015000DF93CDB7DEB781E890E02BE0FC01208390
:1001600088E890E02DE730E0FC01318320838FE6C2
:1001700090E022E0FC01208384E890E0FC01118201
:1001800010828091000190910101A0910201B09133
:10019000030180932B0190932C01A0932D01B09328
:1001A0002E018FE590E02FE530E0F90120812068F5
:1001B000FC0120830000DF91CF910895CF93DF935E
:1001C000CDB7DEB781E890E0FC0110820000DF913E
:1001D000CF910895CF93DF93CDB7DEB781E08093C1
:1001E0002A010000DF91CF9108951F920F92009095
:1001F0005F000F92112400905B000F922F933F93AA
:100200004F935F936F937F938F939F93AF93BF931E
:10021000EF93FF93CF93DF93CDB7DEB780912B01A0
:1002200090912C01A0912D01B0912E010197A1096F
:10023000B10980932B0190932C01A0932D01B093D1
:100240002E0180912B0190912C01A0912D01B09154
:100250002E01892B8A2B8B2B91F40E94EA0080912E
:10026000000190910101A0910201B09103018093DE
:100270002B0190932C01A0932D01B0932E0100002F
:10028000DF91CF91FF91EF91BF91AF919F918F91AE
:100290007F916F915F914F913F912F910F900092BD
:1002A0005B000F9000925F000F901F901895CF9306
:1002B000DF93CDB7DEB72C970FB6F894DEBF0FBE35
:1002C000CDBF6D837E838F83988729873A874B873D
:1002D0005C878D819E81AF81B88529853A854B8564
:1002E0005C85BC01CD010E94DE10DC01CB0189835D
:1002F0009A83AB83BC8389819A81AB81BC81892B32
:100300008A2B8B2B29F489859A85AB85BC8511C0F6
:1003100089859A85AB85BC858D839E83AF83B8879D
:1003200089819A81AB81BC8189879A87AB87BC8799
:10033000D0CFBC01CD012C960FB6F894DEBF0FBE16
:10034000CDBFDF91CF910895CF93DF9300D01F925F
:10035000CDB7DEB789836A834B838B81882371F0A5
:100360008A81282F30E081E090E002C0880F991F39
:100370002A95E2F7982F8981892B0EC08A81282F30
:1003800030E081E090E002C0880F991F2A95E2F7E3
:10039000982F9095898189230F900F900F90DF916E
:1003A000CF910895CF93DF9300D0CDB7DEB7898387
:1003B0006A838A81282F30E081E090E002C0880FB4
:1003C000991F2A95E2F7982F898189230F900F9022
:1003D000DF91CF9108950F931F93CF93DF93CDB704
:1003E000DEB708E210E040E064E08FEF0E94A40175
:1003F000F8018083000086E290E0FC018081809516
:1004000060E00E94D201882311F081E3D3C086E22C
:1004100090E0FC018081809561E00E94D2018823F8
:1004200011F084E3C7C086E290E0FC0180818095F2
:1004300062E00E94D201882311F087E3BBC086E20C
:1004400090E0FC018081809563E00E94D2018823C6
:1004500011F08AE2AFC008E210E040E065E08FEF03
:100460000E94A401F8018083000086E290E0FC0174
:100470008081809560E00E94D201882311F082E3A0
:1004800099C086E290E0FC018081809561E00E9445
:10049000D201882311F085E38DC086E290E0FC0153
:1004A0008081809562E00E94D201882311F088E368
:1004B00081C086E290E0FC018081809563E00E942B
:1004C000D201882311F080E375C008E210E040E01B
:1004D00066E08FEF0E94A401F8018083000086E2AD
:1004E00090E0FC018081809560E00E94D201882329
:1004F00011F083E35FC086E290E0FC01808180958B
:1005000061E00E94D201882311F086E353C086E2A5
:1005100090E0FC018081809562E00E94D2018823F6
:1005200011F089E347C086E290E0FC01808180956C
:1005300063E00E94D201882311F083E23BC008E20D
:1005400010E040E067E08FEF0E94A401F801808393
:10055000000086E290E0FC018081809560E00E94CE
:10056000D201882311F081E425C086E290E0FC01ED
:100570008081809561E00E94D201882311F082E49D
:1005800019C086E290E0FC018081809562E00E94C3
:10059000D201882311F083E40DC086E290E0FC01D3
:1005A0008081809563E00E94D201882311F084E469
:1005B00001C080E0DF91CF911F910F9108950F93BB
:1005C0001F93CF93DF9300D000D0CDB7DEB7698300
:1005D0007A838B839C838091330190913401A09125
:1005E0003501B09136019C01AD0169817A818B8121
:1005F0009C810E941D11882309F477C020E030E01F
:10060000A90169817A818B819C810E941D118823B7
:1006100051F481E990E021E930E0F901208128706E
:10062000FC01208309C081E990E021E930E0F90173
:1006300020812360FC01208328E539E344E75FE360
:1006400069817A818B819C810E941D11882344F4E9
:1006500088E990E02FEF3FEFFC013183208334C025
:1006600020E034E244EF56E469817A818B819C81F9
:100670000E943F12181634F488E990E0FC011182C0
:10068000108222C008E910E020E030E040E053E4AE
:1006900069817A818B819C810E944412DC01CB01AB
:1006A0009C01AD0160E074E284EF9AE40E942211A3
:1006B000DC01CB01BC01CD010E949411DC01CB0116
:1006C0000197F8019183808384E990E0FC01118215
:1006D000108289819A81AB81BC8180933301909390
:1006E0003401A0933501B093360100000F900F90B4
:1006F0000F900F90DF91CF911F910F910895CF939D
:10070000DF93CDB7DEB780E990E020E4FC012083E1
:1007100081E990E02BE0FC01208360E070E0CB01F8
:100720000E94DF020000DF91CF910895CF93DF9305
:10073000CDB7DEB780E990E0FC01108281E990E05E
:10074000FC0110820000DF91CF910895CF93DF93D9
:10075000CDB7DEB78CE180930A0110920B011092A5
:100760000C0188E080930D0110920E0110920F0190
:10077000109210018CE1809311018CE291E0A0E0D5
:10078000B0E08093040190930501A0930601B0931B
:10079000070188E08093080183E0809309011092AB
:1007A0009201109291010000DF91CF910895CF93B3
:1007B000DF93CDB7DEB710920B0110920C011092AF
:1007C0000D0110920E0110920F0110921001000005
:1007D000DF91CF910895CF93DF93CDB7DEB78091AE
:1007E000040190910501A0910601B0910701883C98
:1007F0009105A105B10598F0809104019091050142
:10080000A0910601B0910701C297A109B109809397
:10081000040190930501A0930601B0930701000025
:10082000DF91CF910895CF93DF93CDB7DEB780915D
:10083000040190910501A0910601B09107018F3547
:100840009140A105B10598F48091040190910501B2
:10085000A0910601B0910701C296A11DB11D809320
:10086000040190930501A0930601B09307010000D5
:10087000DF91CF9108950F931F93CF93DF93CDB75F
:10088000DEB780913101882F90E08230910591F0A0
:1008900083309105E1F0019739F505E210E085E23A
:1008A00090E0FC01808141E062E00E94A401F80137
:1008B00080833FC005E210E085E290E0FC0180818A
:1008C00041E063E00E94A401F801808332C005E2A8
:1008D00010E085E290E0FC01808141E064E00E944C
:1008E000A401F801808325C005E210E085E290E0D4
:1008F000FC01808140E062E00E94A401F801808355
:1009000005E210E085E290E0FC01808140E063E0D8
:100910000E94A401F801808305E210E085E290E0E6
:10092000FC01808140E064E00E94A401F801808322
:10093000000080913201882F90E08230910591F083
:1009400083309105E1F0019739F502E210E082E28F
:1009500090E0FC01808141E064E00E94A401F80184
:1009600080833FC002E210E082E290E0FC018081DF
:1009700041E065E00E94A401F801808332C002E2F8
:1009800010E082E290E0FC01808141E066E00E949C
:10099000A401F801808325C002E210E082E290E029
:1009A000FC01808140E064E00E94A401F8018083A2
:1009B00002E210E082E290E0FC01808140E065E02C
:1009C0000E94A401F801808302E210E082E290E03C
:1009D000FC01808140E066E00E94A401F801808370
:1009E00000000000DF91CF911F910F910895CF93E8
:1009F000DF9300D0CDB7DEB78FEF9FEF9A83898367
:100A000080910901882F90E08130910521F00697AF
:100A100009F415C122C280910A01882F90E08C311F
:100A2000910509F493C08D31910544F48730910507
:100A300009F4DCC00E9709F4B1C000C180379105FC
:100A400079F1803E910521F0C89709F451C0F6C0B4
:100A500080910801882F90E08034910569F08038FA
:100A6000910519F0809779F015C086E090E09A839F
:100A700089830E94EB0313C082E090E09A8389830C
:100A80000E9413040CC086E090E09A8389830E9440
:100A9000EB0305C087E090E09A8389830000CEC015
:100AA00080910801882F90E08032910569F08034B0
:100AB000910519F0409779F015C085E090E09A8390
:100AC00089830E94EB0313C082E090E09A838983BC
:100AD0000E9413040CC086E090E09A8389830E94F0
:100AE000EB0305C087E090E09A8389830000A6C0ED
:100AF00064EA70ED82E893E40E94DF0280910801CD
:100B0000882F90E08031910569F08032910519F0CD
:100B1000089779F015C085E090E09A8389830E9458
:100B2000EB0313C082E090E09A8389830E94130450
:100B30000CC086E090E09A8389830E94EB0305C095
:100B400087E090E09A838983000078C08091080153
:100B5000882F90E08830910569F08031910519F077
:100B6000049779F015C085E090E09A8389830E940C
:100B7000EB0313C082E090E09A8389830E94130400
:100B80000CC086E090E09A8389830E94EB0305C045
:100B900087E090E09A838983000050C0809108012B
:100BA000882F90E08430910569F08830910519F024
:100BB000029779F015C085E090E09A8389830E94BE
:100BC000EB0313C082E090E09A8389830E941304B0
:100BD0000CC086E090E09A8389830E94EB0305C0F5
:100BE00087E090E09A838983000028C08091080103
:100BF000882F90E08230910569F08430910519F0DA
:100C0000019779F015C085E090E09A8389830E946E
:100C1000EB0313C082E090E09A8389830E9413045F
:100C20000CC085E090E09A8389830E94EB0305C0A5
:100C300087E090E09A838983000000000EC18091D4
:100C40001101882F90E08C31910509F48DC08D3110
:100C5000910544F48730910509F4D6C00E9709F444
:100C6000ABC0FAC08037910579F1803E910521F043
:100C7000C89709F451C0F0C080910801882F90E016
:100C80008034910569F08038910519F0809779F0EA
:100C900015C084E090E09A8389830E94EB0313C01F
:100CA00081E090E09A8389830E9413040CC084E061
:100CB00090E09A8389830E94EB0305C088E090E06E
:100CC0009A8389830000C8C080910801882F90E032
:100CD0008032910569F08034910519F0409779F0E0
:100CE00015C083E090E09A8389830E94EB0313C0D0
:100CF00081E090E09A8389830E9413040CC084E011
:100D000090E09A8389830E94EB0305C088E090E01D
:100D10009A8389830000A0C080910801882F90E009
:100D20008031910569F08032910519F0089779F0CA
:100D300015C083E090E09A8389830E94EB0313C07F
:100D400081E090E09A8389830E9413040CC084E0C0
:100D500090E09A8389830E94EB0305C088E090E0CD
:100D60009A838983000078C080910801882F90E0E1
:100D70008830910569F08031910519F0049779F078
:100D800015C083E090E09A8389830E94EB0313C02F
:100D900081E090E09A8389830E9413040CC084E070
:100DA00090E09A8389830E94EB0305C088E090E07D
:100DB0009A838983000050C080910801882F90E0B9
:100DC0008430910569F08830910519F0029779F027
:100DD00015C083E090E09A8389830E94EB0313C0DF
:100DE00081E090E09A8389830E9413040CC084E020
:100DF00090E09A8389830E94EB0305C088E090E02D
:100E00009A838983000028C080910801882F90E090
:100E10008230910569F08430910519F0019779F0DD
:100E200015C083E090E09A8389830E94EB0313C08E
:100E300081E090E09A8389830E9413040CC083E0D0
:100E400090E09A8389830E94EB0305C088E090E0DC
:100E50009A83898300000000000089819A810F90A5
:100E60000F90DF91CF910895CF93DF9300D01F9221
:100E7000CDB7DEB79B838A8380E290E0FC0180815E
:100E80008095847089838A819B81009719F00197EE
:100E9000B9F021C08981882381F081E090E09B83B3
:100EA0008A8380912F01809580932F0180912F015B
:100EB0008823A1F40E94A60311C01B821A820EC0CF
:100EC0008981882329F081E090E09B838A8307C091
:100ED0001B821A8204C01B821A8201C000008A8110
:100EE0009B810F900F900F90DF91CF910895CF933A
:100EF000DF9300D000D0CDB7DEB79C838B8380E238
:100F000090E0FC018081882F90E08170992721E09A
:100F1000892B09F020E0298380E290E0FC018081A8
:100F2000809582708A838B819C818130910551F1FB
:100F300082309105A9F1892B09F040C090910A01F6
:100F400080EE981769F08981882351F080910A0119
:100F5000880F80930A0181E090E09C838B8331C0ED
:100F600090910A0187E0981761F18A81882349F1FD
:100F700080910A01869580930A0182E090E09C832B
:100F80008B831FC08981882329F081E090E09C83B6
:100F90008B8319C089818823B1F41C821B8213C002
:100FA0008A81882329F082E090E09C838B830DC0A6
:100FB0008A81882351F41C821B8207C01C821B82F9
:100FC00005C0000003C0000001C000008B819C81AF
:100FD0000F900F900F900F90DF91CF910895CF93C6
:100FE000DF9300D01F92CDB7DEB79B838A8380E268
:100FF00090E0FC0180818095887089838A819B8143
:10100000009719F0019789F01BC08981882351F05E
:101010008091300180958093300181E090E09B8346
:101020008A8311C01B821A820EC08981882329F00D
:1010300081E090E09B838A8306C01B821A8203C0F2
:101040001B821A8200008A819B810F900F900F9063
:10105000DF91CF9108950F931F93CF93DF9300D02B
:10106000CDB7DEB79A83898389819A81892BB1F5BF
:10107000809130018823C9F005E210E085E290E01C
:10108000FC01808141E060E00E94A401F8018083BE
:1010900005E210E085E290E0FC01808141E061E042
:1010A0000E94A401F80180831CC005E210E085E2E3
:1010B00090E0FC01808141E060E00E94A401F80121
:1010C000808305E210E085E290E0FC01808140E051
:1010D00061E00E94A401F801808303C01A82198292
:1010E000000089819A810F900F90DF91CF911F911D
:1010F0000F910895CF93DF9300D0CDB7DEB79A83D9
:10110000898389819A81009719F0019769F140C01C
:101110008091910190919201079771F48091320131
:10112000833050F4809132018F5F8093320181E0EF
:1011300090E09A83898317C08091910190919201E8
:10114000089771F480913101833050F4809131011E
:101150008F5F8093310181E090E09A83898303C09F
:101160001A82198218C017C0809191019091920142
:10117000079731F08091910190919201089729F49D
:1011800081E090E09A83898306C01A82198203C0A5
:101190001A821982000089819A81009731F00197A3
:1011A00009F004C00E943B0401C0000089819A81BB
:1011B0000F900F90DF91CF910895CF93DF9300D0E0
:1011C00000D0CDB7DEB79C838B8380E290E0FC013A
:1011D000808180958870898380E290E0FC01808125
:1011E000809580718A838B819C818130910551F13A
:1011F00082309105A9F1892B09F040C0909111012D
:1012000080EE981769F08981882351F0809111014F
:10121000880F8093110181E090E09C838B8331C023
:101220009091110187E0981761F18A81882349F133
:101230008091110186958093110182E090E09C835A
:101240008B831FC08981882329F081E090E09C83F3
:101250008B8319C089818823B1F41C821B8213C03F
:101260008A81882329F082E090E09C838B830DC0E3
:101270008A81882351F41C821B8207C01C821B8236
:1012800005C0000003C0000001C000008B819C81EC
:101290000F900F900F900F90DF91CF910895CF9303
:1012A000DF9300D01F92CDB7DEB79B838A830E9465
:1012B000FC122AE030E0B9010E94CA1089838A81B9
:1012C0009B81092E000CAA0BBB0B40E050E028E0EC
:1012D00030E0841B950B2817390708F413C18A5B8B
:1012E0009F4FFC010C94001180912F01882319F469
:1012F0001B821A820AC18981853028F081E090E042
:101300009B838A8302C18981853008F0FEC082E018
:1013100090E09B838A83F9C080912F01882329F470
:101320000E94A6031B821A82F1C0809109018130BC
:1013300029F40E94F7049B838A83E8C081E090E04F
:101340009B838A83E3C080912F01882329F40E9424
:10135000A6031B821A82DAC080910901863029F423
:101360000E94F7049B838A83D1C082E090E09B8334
:101370008A83CCC080912F01882329F40E94A60380
:101380001B821A82C3C080910801803849F4809181
:101390000901863029F086E090E09B838A83B6C0FD
:1013A00080910901863029F40E94F7049B838A8387
:1013B000ADC085E090E09B838A83A8C080912F0117
:1013C000882329F40E94A6031B821A829FC0809161
:1013D0000801813049F480910901863029F085E0C7
:1013E00090E09B838A8392C080910901863029F422
:1013F0000E94F7049B838A8389C086E090E09B83E8
:101400008A8384C080912F01882329F40E94A60337
:101410001B821A827BC080910801803849F4809138
:101420000901813029F084E090E09B838A836EC0BB
:1014300080910901813029F40E94F7049B838A83FB
:1014400065C083E090E09B838A8360C080912F0118
:10145000882329F40E94A6031B821A8257C0809118
:101460000801813049F480910901813029F083E03D
:1014700090E09B838A834AC080910901813029F4DE
:101480000E94F7049B838A8341C084E090E09B83A1
:101490008A833CC080912F01882329F487E090E063
:1014A0009B838A8333C080913201833040F0109255
:1014B000320180913201809331010E943B040E94ED
:1014C000A60310922F011B821A8220C080912F0147
:1014D000882329F488E090E09B838A8317C0809159
:1014E0003101833040F010923201809132018093BB
:1014F00031010E943B040E94A60310922F011B821F
:101500001A8204C01B821A8201C000008A819B815A
:10151000092E000CAA0BBB0B40E050E028E030E0A5
:10152000841B950B2817390708F4EEC0815B9F4F89
:10153000FC010C9400111092920110929101E5C0EF
:1015400081E090E090939201809391018091090154
:10155000882F90E0865F9E4FFC01108280910901E8
:1015600081508093090180910901882F90E020919A
:101570000801865F9E4FFC012083C7C082E090E097
:10158000909392018093910180910901882F90E0BE
:10159000865F9E4FFC011082809109018F5F8093CE
:1015A000090180910901882F90E020910801865F50
:1015B0009E4FFC012083A9C085E090E090939201AA
:1015C0008093910180910901882F90E0865F9E4F62
:1015D000FC01108280910801880F8093080180919E
:1015E00009018F5F8093090180910901882F90E0A4
:1015F00020910801865F9E4FFC01208386C086E013
:1016000090E0909392018093910180910901882F3D
:1016100090E0865F9E4FFC011082809108018695C4
:1016200080930801809109018F5F80930901809167
:101630000901882F90E020910801865F9E4FFC01F0
:10164000208363C083E090E09093920180939101A6
:1016500080910901882F90E0865F9E4FFC011082E7
:1016600080910801880F80930801809109018150C1
:101670008093090180910901882F90E02091080151
:10168000865F9E4FFC01208340C084E090E09093F1
:1016900092018093910180910901882F90E0865FEB
:1016A0009E4FFC011082809108018695809308016D
:1016B0008091090181508093090180910901882F4F
:1016C00090E020910801865F9E4FFC0120831DC0A1
:1016D00087E090E090939201809391010E94D7035C
:1016E0008FEF80930A0110922F010FC088E090E0E5
:1016F00090939201809391010E94D7038FEF809382
:10170000110110922F0101C000008A819B810F906E
:101710000F900F90DF91CF910895CF93DF9300D07A
:101720001F92CDB7DEB79B838A830E94FC122AE00A
:1017300030E0B9010E94CA1089838A819B8181307F
:10174000910529F18230910529F1892B31F58981A3
:10175000843058F08091910190919201059729F47D
:1017600081E090E09B838A8311C08981843058F0A6
:101770008091910190919201069729F482E090E086
:101780009B838A8303C01B821A820AC009C01B8202
:101790001A8206C01B821A8203C01B821A820000B2
:1017A0008A819B818130910531F08230910569F009
:1017B000892BA9F019C080911101803E91F0809190
:1017C0001101880F809311010CC0809111018730A5
:1017D00051F08091110186958093110104C00000A1
:1017E00003C0000001C000008A819B810F900F9010
:1017F0000F90DF91CF910895CF93DF9300D0CDB7B5
:10180000DEB79A83898389819A81892B19F01A829C
:10181000198201C0000089819A81892B09F03BC09F
:101820009091370188E0981761F188E290E020916B
:1018300038012095FC0120838BE290E02091120179
:10184000FC01208380913701873031F4809137018A
:101850008F5F809337010FC0809137018F5F809336
:10186000370180913701882F90E0865F9E4FFC0101
:1018700080818093380180911201880F809312013A
:1018800009C01092370180910A018093380181E0EC
:1018900080931201000089819A810F900F90DF914F
:1018A000CF9108950F931F93CF93DF93CDB7DEB7FA
:1018B0006B970FB6F894DEBF0FBECDBF81E290E00C
:1018C00020E7FC01208382E290E02FE8FC012083E6
:1018D00084E290E02FEFFC01208385E290E0FC01A0
:1018E000108287E290E02FEFFC01208388E290E0F5
:1018F000FC0110828AE290E02FEFFC0120838BE252
:1019000090E0FC01108280E1EAE1F1E0DE011C964A
:1019100001900D928A95E1F788E090E098878F8397
:101920008FEF89871B861A868A859B85880F991F6A
:101930009E012F5F3F4F820F931F0B96FC0180810A
:1019400091812985FC0120838A859B85880F991FB9
:101950009E012F5F3F4F820F931F0B96FC0120814A
:1019600031818AE090E0A0E0B0E0F90181839283C8
:10197000A383B4838A859B85880F991F9E012F5F5F
:101980003F4F820F931F0B96FC01208131818A8586
:101990009B85880F991FAE014F5F5F4F840F951F86
:1019A0000B96FC0180819181FC0181819281A38150
:1019B000B481F90185839683A783B0878A859B8547
:1019C000880F991F9E012F5F3F4F820F931F0B9629
:1019D000FC018081918127E737E0FC013287218774
:1019E0008A859B8501969B878A878A859B85880F38
:1019F000991F9E012F5F3F4F820F931F0B96FC0193
:101A0000808191812985FC0120838A859B85880FAF
:101A1000991F9E012F5F3F4F820F931F0B96FC0172
:101A2000208131818AE090E0A0E0B0E0F90181837B
:101A30009283A383B4838A859B85880F991F9E0117
:101A40002F5F3F4F820F931F0B96FC012081318146
:101A50008A859B85880F991FAE014F5F5F4F840F6A
:101A6000951F0B96FC0180819181FC0181819281FF
:101A7000A381B481F90185839683A783B0878A8582
:101A80009B85880F991F9E012F5F3F4F820F931FE9
:101A90000B96FC01808191812FEE37E0FC013287AB
:101AA00021878A859B8501969B878A878A859B8566
:101AB000880F991F9E012F5F3F4F820F931F0B9638
:101AC000FC01808191812985FC0120838A859B8589
:101AD000880F991F9E012F5F3F4F820F931F0B9618
:101AE000FC01208131818AE090E0A0E0B0E0F901C2
:101AF00081839283A383B4838A859B85880F991FF2
:101B00009E012F5F3F4F820F931F0B96FC01208198
:101B100031818A859B85880F991FAE014F5F5F4F8A
:101B2000840F951F0B96FC0180819181FC018181BE
:101B30009281A381B481F90185839683A783B087BD
:101B40008A859B85880F991F9E012F5F3F4F820FCB
:101B5000931F0B96FC01808191812BE238E0FC0100
:101B6000328721878A859B8501969B878A878A850C
:101B70009B85880F991F9E012F5F3F4F820F931FF8
:101B80000B96FC01808191812985FC0120838A8547
:101B90009B85880F991F9E012F5F3F4F820F931FD8
:101BA0000B96FC0120813181809104019091050107
:101BB000A0910601B0910701F90181839283A3836B
:101BC000B4838A859B85880F991F9E012F5F3F4FA5
:101BD000820F931F0B96FC01208131818A859B85A2
:101BE000880F991FAE014F5F5F4F840F951F0B96B3
:101BF000FC0180819181FC0181819281A381B4816A
:101C0000F90185839683A783B0878A859B85880F92
:101C1000991F9E012F5F3F4F820F931F0B96FC0170
:101C2000808191812FE439E0FC01328721878A8508
:101C30009B8501969B878A878A859B85880F991F3C
:101C40009E012F5F3F4F820F931F0B96FC018081F7
:101C500091812985FC0120838A859B85880F991FA6
:101C60009E012F5F3F4F820F931F0B96FC01208137
:101C7000318188EC90E0A0E0B0E0F90181839283AB
:101C8000A383B4838A859B85880F991F9E012F5F4C
:101C90003F4F820F931F0B96FC01208131818A8573
:101CA0009B85880F991FAE014F5F5F4F840F951F73
:101CB0000B96FC0180819181FC0181819281A3813D
:101CC000B481F90185839683A783B0878A859B8534
:101CD000880F991F9E012F5F3F4F820F931F0B9616
:101CE000FC01808191812DE83BE0FC013287218756
:101CF0008A859B8501969B878A878A859B85880F25
:101D0000991F9E012F5F3F4F820F931F0B96FC017F
:101D1000808191812985FC0120838A859B85880F9C
:101D2000991F9E012F5F3F4F820F931F0B96FC015F
:101D30002081318181E090E0A0E0B0E0F901818371
:101D40009283A383B4838A859B85880F991F9E0104
:101D50002F5F3F4F820F931F0B96FC012081318133
:101D60008A859B85880F991FAE014F5F5F4F840F57
:101D7000951F0B96FC0180819181FC0181819281EC
:101D8000A381B481F90185839683A783B0878A856F
:101D90009B85880F991F9E012F5F3F4F820F931FD6
:101DA0000B96FC01808191812CEF3BE0FC01328796
:101DB00021878A859B8501969B878A878A859B8553
:101DC000880F991F9E012F5F3F4F820F931F0B9625
:101DD000FC01808191812985FC0120838A859B8576
:101DE000880F991F9E012F5F3F4F820F931F0B9605
:101DF000FC012081318184E190E0A0E0B0E0F901B4
:101E000081839283A383B4838A859B85880F991FDE
:101E10009E012F5F3F4F820F931F0B96FC01208185
:101E200031818A859B85880F991FAE014F5F5F4F77
:101E3000840F951F0B96FC0180819181FC018181AB
:101E40009281A381B481F90185839683A783B087AA
:101E50008A859B85880F991F9E012F5F3F4F820FB8
:101E6000931F0B96FC018081918124E337E0FC01F4
:101E7000328721878A859B8501969B878A878A85F9
:101E80009B85880F991F9E012F5F3F4F820F931FE5
:101E90000B96FC01808191812985FC0120838A8534
:101EA0009B85880F991F9E012F5F3F4F820F931FC5
:101EB0000B96FC01208131818AE090E0A0E0B0E047
:101EC000F90181839283A383B4838A859B85880FDC
:101ED000991F9E012F5F3F4F820F931F0B96FC01AE
:101EE000208131818A859B85880F991FAE014F5FC4
:101EF0005F4F840F951F0B96FC0180819181FC013F
:101F000081819281A381B481F90185839683A7831E
:101F1000B0878A859B85880F991F9E012F5F3F4F51
:101F2000820F931F0B96FC01808191812AE738E094
:101F3000FC01328721878A859B8501969B878A874A
:101F40001A8219828C859D85FC0181819281A381F1
:101F5000B4818B839C83AD83BE8381E090E09A83C0
:101F6000898325C089819A81880F991F9E012F5FDF
:101F70003F4F820F931F0B96FC0180819181FC01E2
:101F800021813281438154818B819C81AD81BE81CD
:101F9000BC01CD010E945701DC01CB018B839C83E6
:101FA000AD83BE8389819A8101969A838983298131
:101FB0003A818F81988528173907A0F28B819C81FF
:101FC000AD81BE81BC01CD010E9479000E94A700B5
:101FD0000E947F031A821982CDC089819A81880F5D
:101FE000991F9E012F5F3F4F820F931F0B96FC019D
:101FF00080819181FC01818592858F549940D1F433
:1020000089819A81880F991F9E012F5F3F4F820F10
:10201000931F0B96FC0120813181809104019091E6
:102020000501A0910601B0910701F9018183928316
:10203000A383B48389819A81880F991F9E012F5FA2
:102040003F4F820F931F0B96FC0180819181FC0111
:10205000258136814781508589819A81880F991F12
:10206000BE016F5F7F4F860F971F0B96FC0180812B
:102070009181FC0181819281A381B4812817390764
:102080004A075B0708F445C089819A81880F991F28
:102090009E012F5F3F4F820F931F0B96FC01008123
:1020A000118189819A81880F991F9E012F5F3F4F6F
:1020B000820F931F0B96FC0180819181FC01218589
:1020C000328589819A81880F991FAE014F5F5F4FDA
:1020D000840F951F0B96FC0180819181FC0180810A
:1020E000082E000C990BF9010995F801808389816C
:1020F0009A81880F991F9E012F5F3F4F820F931F78
:102100000B96FC0180819181FC0115821682178259
:10211000108689819A81880F991F9E012F5F3F4FFA
:10212000820F931F0B96FC016081718189819A81D6
:10213000880F991F9E012F5F3F4F820F931F0B96B1
:10214000FC0180819181FC01258136814781508588
:102150008B819C81AD81BE81820F931FA41FB51F0F
:10216000FB0185839683A783B08789819A81019635
:102170009A83898329813A818F8198852817390725
:1021800008F42BCF000080912A018823E1F31092FC
:102190002A0120CF97FB072E16F4009407D077FD75
:1021A00009D00E94091107FC05D03EF49095819555
:1021B0009F4F0895709561957F4F0895A1E21A2E63
:1021C000AA1BBB1BFD010DC0AA1FBB1FEE1FFF1FDB
:1021D000A217B307E407F50720F0A21BB30BE40B2B
:1021E000F50B661F771F881F991F1A9469F7609572
:1021F0007095809590959B01AC01BD01CF0108952C
:10220000EE0FFF1F0024001C0BBE0790F691E02D7F
:102210000994AA1BBB1B51E107C0AA1FBB1FA6172D
:10222000B70710F0A61BB70B881F991F5A95A9F77F
:1022300080959095BC01CD0108950E94CA1108F4C3
:1022400081E008950E9436110C9405120E94FE113F
:1022500058F00E94F71140F029F45F3F29F00C94E8
:10226000EE1151110C9439120C94F4110E941612B3
:1022700068F39923B1F3552391F3951B550BBB27B5
:10228000AA2762177307840738F09F5F5F4F220FFA
:10229000331F441FAA1FA9F335D00E2E3AF0E0E8F1
:1022A00032D091505040E695001CCAF72BD0FE2F3B
:1022B00029D0660F771F881FBB1F261737074807CF
:1022C000AB07B0E809F0BB0B802DBF01FF27935887
:1022D0005F4F3AF09E3F510578F00C94EE110C944C
:1022E00039125F3FE4F3983ED4F38695779567956E
:1022F000B795F7959F5FC9F7880F911D96958795BC
:1023000097F90895E1E0660F771F881FBB1F6217DA
:1023100073078407BA0720F0621B730B840BBA0B98
:10232000EE1F88F7E09508950E949B116894B11103
:102330000C94391208950E941E1288F09F5798F04D
:10234000B92F9927B751B0F0E1F0660F771F881FBA
:10235000991F1AF0BA95C9F714C0B13091F00E94D4
:102360003812B1E008950C943812672F782F88271F
:10237000B85F39F0B93FCCF3869577956795B395FB
:10238000D9F73EF490958095709561957F4F8F4F6A
:102390009F4F0895990F0008550FAA0BE0E8FEEF34
:1023A00016161706E807F907C0F012161306E40719
:1023B000F50798F0621B730B840B950B39F40A2612
:1023C00061F0232B242B252B21F408950A2609F4F0
:1023D000A140A6958FEF811D811D089597F99F67F4
:1023E00080E870E060E008959FEF80EC089500249D
:1023F0000A941616170618060906089500240A946A
:1024000012161306140605060895092E0394000CEF
:1024100011F4882352F0BB0F40F4BF2B11F460FF7E
:1024200004C06F5F7F4F8F4F9F4F089557FD9058A7
:10243000440F551F59F05F3F71F04795880F97FB88
:10244000991F61F09F3F79F0879508951216130642
:102450001406551FF2CF4695F1DF08C01616170671
:102460001806991FF1CF86957105610508940895A6
:10247000E894BB2766277727CB0197F908950E9438
:10248000CA1108F48FEF08950E9457120C94051298
:102490000E94F71138F00E94FE1120F0952311F0F0
:1024A0000C94EE110C94F41111240C9439120E9426
:1024B000161270F3959FC1F3950F50E0551F629F60
:1024C000F001729FBB27F00DB11D639FAA27F00D8D
:1024D000B11DAA1F649F6627B00DA11D661F829FB4
:1024E0002227B00DA11D621F739FB00DA11D621F99
:1024F000839FA00D611D221F749F3327A00D611DB6
:10250000231F849F600D211D822F762F6A2F112497
:102510009F5750409AF0F1F088234AF0EE0FFF1FCA
:10252000BB1F661F771F881F91505040A9F79E3F21
:10253000510580F00C94EE110C9439125F3FE4F3D6
:10254000983ED4F3869577956795B795F795E79577
:102550009F5FC1F7FE2B880F911D9695879597F980
:1025600008958F929F92AF92BF92CF92DF92EF9297
:10257000FF92CF93DF93EC01688179818A819B81FF
:10258000611571058105910521F464E279ED8BE512
:1025900097E02DE133EF41E050E00E940B13490139
:1025A0005A019B01AC01A7EAB1E40E942A136B0116
:1025B0007C01ACEEB4EFA50194010E943813DC015C
:1025C000CB018C0D9D1DAE1DBF1DB7FF03C0019734
:1025D000A109B04888839983AA83BB839F77DF9141
:1025E000CF91FF90EF90DF90CF90BF90AF909F90F2
:1025F0008F9008950C94B11283E191E00C94B11284
:10260000A0E0B0E08093130190931401A093150112
:10261000B09316010895052E97FB1EF400940E94B6
:10262000221357FD07D00E94DE1007FC03D04EF4A2
:102630000C94221350954095309521953F4F4F4F64
:102640005F4F089590958095709561957F4F8F4F5E
:102650009F4F08950E943D13A59F900DB49F900D2C
:10266000A49F800D911D11240895B7FF0C942A1387
:102670000E942A13821B930B0895A29FB001B39F5F
:10268000C001A39F700D811D1124911DB29F700D7B
:0C269000811D1124911D0895F894FFCFC6
:10269C00010000002C01000008031C0000080000D1
:1026AC00001C010100000008E00786017B0170019D
:0A26BC0065015A014F014401390184
:00000001FF
